:020000040000fa
:080000000002040000000000f2
:020000040000fa
:040008006407000089
:020000040000fa
:04000c00e802000006
:020000040000fa
:040010002a030000bf
:020000040000fa
:0400140008030000dd
:020000040000fa
:040018004a03000097
:020000040000fa
:04001c006407000075
:020000040000fa
:040020006407000071
:020000040000fa
:04002400640700006d
:020000040000fa
:040028006407000069
:020000040000fa
:04002c006407000065
:020000040000fa
:040030006407000061
:020000040000fa
:040034004204000082
:020000040000fa
:040038006407000059
:020000040000fa
:04003c006407000055
:020000040000fa
:040040006407000051
:020000040000fa
:04004400780400003c
:020000040000fa
:040048002e0700007f
:020000040000fa
:04004c006407000045
:020000040000fa
:040050006407000041
:020000040000fa
:04005400640700003d
:020000040000fa
:040058006407000039
:020000040000fa
:04005c00ae040000ee
:020000040000fa
:040060006407000031
:020000040000fa
:04006400640700002d
:020000040000fa
:040068006407000029
:020000040000fa
:04006c00de040000ae
:020000040000fa
:040070006407000021
:020000040000fa
:04007400640700001d
:020000040000fa
:040078006407000019
:020000040000fa
:04007c006407000015
:020000040000fa
:040080006407000011
:020000040000fa
:04008400640700000d
:020000040000fa
:040088006407000009
:020000040000fa
:04008c006407000005
:020000040000fa
:040090006407000001
:020000040000fa
:0400940064070000fd
:020000040000fa
:0400980064070000f9
:020000040000fa
:04009c0064070000f5
:020000040000fa
:0400a000c603000093
:020000040000fa
:0400a4006a030000eb
:020000040000fa
:0400a80064070000e9
:020000040000fa
:0400ac0064070000e5
:020000040000fa
:0400b00064070000e1
:020000040000fa
:0400b40064070000dd
:020000040000fa
:0400b80064070000d9
:020000040000fa
:0400bc0064070000d5
:020000040000fa
:0400c00064070000d1
:020000040000fa
:0400c40064070000cd
:020000040000fa
:0400c80064070000c9
:020000040000fa
:0400cc0064070000c5
:020000040000fa
:0400d00064070000c1
:020000040000fa
:0400d40064070000bd
:020000040000fa
:0400d80064070000b9
:020000040000fa
:0400dc0064070000b5
:020000040000fa
:0400e00064070000b1
:020000040000fa
:0400e40064070000ad
:020000040000fa
:0400e80064070000a9
:020000040000fa
:0400ec0064070000a5
:020000040000fa
:0400f00064070000a1
:020000040000fa
:0400f400640700009d
:020000040000fa
:0400f8006407000099
:020000040000fa
:0400fc006407000095
:020000040000fa
:040100006407000090
:020000040000fa
:04010400640700008c
:020000040000fa
:040108006407000088
:020000040000fa
:04010c006407000084
:020000040000fa
:040110006407000080
:020000040000fa
:04011400640700007c
:020000040000fa
:040118006407000078
:020000040000fa
:04011c006407000074
:020000040000fa
:040120006407000070
:020000040000fa
:04012400640700006c
:020000040000fa
:040128006407000068
:020000040000fa
:04012c006407000064
:020000040000fa
:040130002c0400009b
:020000040000fa
:04013400640700005c
:020000040000fa
:040208006407000087
:020000040000fa
:04020c00e802000004
:020000040000fa
:040210002a030000bd
:020000040000fa
:0402140008030000db
:020000040000fa
:040218004a03000095
:020000040000fa
:04021c006407000073
:020000040000fa
:04022000640700006f
:020000040000fa
:04022400640700006b
:020000040000fa
:040228006407000067
:020000040000fa
:04022c006407000063
:020000040000fa
:04023000640700005f
:020000040000fa
:040234004204000080
:020000040000fa
:040238006407000057
:020000040000fa
:04023c006407000053
:020000040000fa
:04024000640700004f
:020000040000fa
:04024400780400003a
:020000040000fa
:040248002e0700007d
:020000040000fa
:04024c006407000043
:020000040000fa
:04025000640700003f
:020000040000fa
:04025400640700003b
:020000040000fa
:040258006407000037
:020000040000fa
:04025c00ae040000ec
:020000040000fa
:04026000640700002f
:020000040000fa
:04026400640700002b
:020000040000fa
:040268006407000027
:020000040000fa
:04026c00de040000ac
:020000040000fa
:04027000640700001f
:020000040000fa
:04027400640700001b
:020000040000fa
:040278006407000017
:020000040000fa
:04027c006407000013
:020000040000fa
:04028000640700000f
:020000040000fa
:04028400640700000b
:020000040000fa
:040288006407000007
:020000040000fa
:04028c006407000003
:020000040000fa
:0402900064070000ff
:020000040000fa
:0402940064070000fb
:020000040000fa
:0402980064070000f7
:020000040000fa
:04029c0064070000f3
:020000040000fa
:0402a000c603000091
:020000040000fa
:0402a4006a030000e9
:020000040000fa
:0402a80064070000e7
:020000040000fa
:0402ac0064070000e3
:020000040000fa
:0402b00064070000df
:020000040000fa
:0402b40064070000db
:020000040000fa
:0402b80064070000d7
:020000040000fa
:0402bc0064070000d3
:020000040000fa
:0402c00064070000cf
:020000040000fa
:0402c40064070000cb
:020000040000fa
:0402c80064070000c7
:020000040000fa
:0402cc0064070000c3
:020000040000fa
:0402d00064070000bf
:020000040000fa
:0402d40064070000bb
:020000040000fa
:0402d80064070000b7
:020000040000fa
:0402dc0064070000b3
:020000040000fa
:0402e00064070000af
:020000040000fa
:0402e40064070000ab
:020000040000fa
:0402e80064070000a7
:020000040000fa
:0402ec0064070000a3
:020000040000fa
:0402f000640700009f
:020000040000fa
:0402f400640700009b
:020000040000fa
:0402f8006407000097
:020000040000fa
:0402fc006407000093
:020000040000fa
:04030000640700008e
:020000040000fa
:04030400640700008a
:020000040000fa
:040308006407000086
:020000040000fa
:04030c006407000082
:020000040000fa
:04031000640700007e
:020000040000fa
:04031400640700007a
:020000040000fa
:040318006407000076
:020000040000fa
:04031c006407000072
:020000040000fa
:04032000640700006e
:020000040000fa
:04032400640700006a
:020000040000fa
:040328006407000066
:020000040000fa
:04032c006407000062
:020000040000fa
:040330002c04000099
:020000040000fa
:04033400640700005a
:020000040000fa
:100400000f9820000e7f22000e01880000000000df
:10041000000020000000e000020032000001200087
:100420002002880014000700a90207000000e00075
:1004300003003a00e0a32100010020000200370081
:100440000000200001002000810f70000100320038
:1004500014000700000020000000e000020032004d
:100460000000020000000000041b02000000000069
:100470000040da000000fe004440a9008000200097
:100480000000e0000300320000002000a00188000e
:100490004440a800000006008a1f78008b1f7800e7
:1004a0000000060091018800800478000000eb0045
:1004b0001a003700e284440032a0b4009905ba0063
:1004c000e284440032a0b4009906ba00e2844400f9
:1004d00032a0b4000006eb00476fde00fd07b2005b
:1004e000636ce10003003a00ebff07000000eb0043
:1004f0000a003700606ce10004003a00005deb0088
:100500008b05e900fdff3e00040037006168e10053
:10051000010032000086eb000b00070019c7ba008b
:100520001905ba000e04e00003003a000a00e000da
:10053000e0ff3a0000000600fe07b2009e018800be
:100540008a047800f5ff3700395dba008b05e900b1
:100550000c003200295dba008b05e900080032006a
:100560000c00e00003003a00e284440032a0b40032
:10057000f5ff370019ddba008b05e900faff3a00f4
:100580008904e800e184440032a0b40000000600c1
:10059000000000000000000000000000000000005b
:1005a000000000000000000000000000000000004b
:1005b000000000000000000000000000000000003b
:1005c000000000000000000000000000000000002b
:1005d0003600f800809fbe00829fbe00849fbe0050
:1005e000869fbe000000fa008020a9000000eb00fa
:1005f000800c07000080fa004f03be004f02be00cf
:100600004f01be004f00be003600f900004006005a
:100610003600f800809fbe00829fbe00849fbe000f
:10062000869fbe000000fa00770c07008040a900fa
:10063000100020006f0c07000080fa004f03be007e
:100640004f02be004f01be004f00be003600f90051
:10065000004006003600f800809fbe00829fbe006a
:10066000849fbe00869fbe000000fa008060a90043
:10067000200020005f0c07000080fa004f03be003e
:100680004f02be004f01be004f00be003600f90011
:10069000004006003600f800809fbe00829fbe002a
:1006a000849fbe00869fbe000000fa008080a900e3
:1006b000300020004f0c07000080fa004f03be00fe
:1006c0004f02be004f01be004f00be003600f900d1
:1006d000004006003600f800809fbe00829fbe00ea
:1006e000849fbe00869fbe000000fa00104180007b
:1006f00000000100f1408000e0408000808f500049
:1007000002003a0097e0a9001900370087e0a9002d
:1007100010003700f0408000904078008180fb009e
:10072000a11188000000e800f0408800f14080003e
:10073000f0952000808f500002003a006095200064
:10074000f0408800f1408000e0408000808f500041
:10075000060032009111800000202000008060001f
:100760000000e000ebff3200010037000000000055
:100770000080fa004f03be004f02be004f01be00d2
:100780004f00be003600f900004006003600f800b9
:10079000809fbe00829fbe00849fbe00869fbe00d9
:1007a0000000fa00204180000000010087c0a9007d
:1007b0001e003700c0408000b111800081407800e9
:1007c00001487800c140800070962000808f500062
:1007d00009003200c04080008000e800d040800066
:1007e000808f500004003200c04080000000e8000c
:1007f000c04088000d003700c14080007096200086
:10080000808f500007003a00d1408000f095200012
:10081000808f500003003200f0952000c040880017
:100820000200370010c0b30020e8b700901180002c
:10083000610060000000e000deff3a000080fa0086
:100840004f03be004f02be004f01be004f00be006e
:100850003600f90000400600801f78000000fa0012
:1008600090118000620060000000e0000100320092
:100870003222a9008c40a9000080fa004f007800c5
:10088000004006003600f800809fbe00829fbe0038
:10089000849fbe00869fbe000000fa006041800079
:1008a0000000e00002003200604180000000010012
:1008b000b0972000104078008040e800b0972000fa
:1008c00001487800a097200011c0b30001487800cb
:1008d0008460a9000080fa004f03be004f02be00f2
:1008e0004f01be004f00be003600f9000040060078
:1008f0003600f800809fbe00829fbe00849fbe002d
:10090000869fbe000000fa00704180000000e000f9
:10091000020032007041800000000100d0972000ea
:10092000104078008040e800d0972000014878000f
:10093000c097200011c0b3000148780084e0a900ee
:100940000080fa004f03be004f02be004f01be0000
:100950004f00be003600f90000400600809fbe0038
:100960003400f80000002000a00188000200fa0016
:100970002104800000002200008060000000e000f0
:100980000a003200000000000019800061006000d1
:100990000000e000fcff320001188000010f780029
:1009a00010c0b30035e8b70085a0a9000080fa00a8
:1009b0003400f9004f00be00004006003600f80089
:1009c000809fbe00829fbe00849fbe00869fbe00a7
:1009d0000000fa008620a9004110800000082000d5
:1009e000008060000000e0000800320008e2a9007a
:1009f0000828ef0070408000200090008000eb008d
:100a0000010878000e28ef000d01370040408000fb
:100a10008000eb00b200200003002000820f500095
:100a2000838f5800fc003e00006001000b0037007f
:100a300039003700750037009c003700f30037009d
:100a4000c8003700d9003700f0003700db0037005e
:100a5000f1003700340037005000370000802000dc
:100a600020009000620060000000e000f3003a0007
:100a7000008020001000900070408800008020005e
:100a800010009000104078000ae8b70000802000b5
:100a9000100090001000900060408800008020004e
:100aa00010009000e6004000008020001100980037
:100ab0000080200090009000e0962000808f500081
:100ac00003003a0000802000819620001100980069
:100ad00000802000a00090000100a10021009800eb
:100ae000008020009000900000802000100078001e
:100af000808f500004003a0000802000a000900089
:100b00000110a000210098000602a800200020008b
:100b100040408800ca0037000622a80020002000bc
:100b200040408800c60037004110800000002800c7
:100b3000008060000000e00008003200008020001b
:100b4000604090008040e8000080200061409800f4
:100b5000400020009b060700b9003700804080005d
:100b60008000d100f00f200000806000101088008d
:100b70008040800061006000004078000004e000d8
:100b800003003200b000200040408800ac00370075
:100b90003000200040408800a9003700411080004c
:100ba00000002800008060000000e0000800320023
:100bb00000802000604090008040e800008020001d
:100bc00061409800400020007e0607009c0037002e
:100bd0000622a800804080004800de00e600600099
:100be000000f2000010070008040880080408000dd
:100bf0000000a0008040880010c0b30012e8b700d9
:100c000020002000404088008d00370012c8bf003f
:100c1000e14f50000a003200604080001000780070
:100c2000804088006040800020009000a040880044
:100c3000604080002040900016e8b70001003700b7
:100c40001268ef0081408000f00f2000808f50007c
:100c500009003600804080004800de00e6006000a9
:100c6000000f20000100700010108800a00020007c
:100c700040408800720037008040800010108800db
:100c80008040800061006000004078000004e000c7
:100c90000300320050002000404088006800370008
:100ca000300020004040880065003700411080007f
:100cb00000002800008060000000e0000900320011
:100cc00000802000604090008040e800008020000c
:100cd0006140980009e2a900500020003906070091
:100ce0005700370016c8bf008080fb008100e90074
:100cf000cf08de00814078000040e90016e8b70028
:100d00000104e000100032006040800066004000f6
:100d1000604088000ac8bf000040e9000ae8b70048
:100d20000ac8bf000004e00003003a0020002000d1
:100d300024060700420037000622a80020002000f9
:100d4000404088003e003700a0408000904078007e
:100d50008180fb00111088000000e800a04088009e
:100d6000370037004110800000002800008060003c
:100d70000000e00009003200008020006040900088
:100d80008040e80000802000614098004000200082
:100d90000c06070009e2a900290037000662a80036
:100da000800020004040880025003700800020009f
:100db000404088000662a80021003700a040800063
:100dc0000110800081407800014878000000e800b0
:100dd000a040880016c8bf000040e90016e8b70030
:100de00016c8bf000004e0000400320006a2a900fb
:100df00060002000404088000200370006a2a800e2
:100e0000df0507000682a8000d0037002000200043
:100e1000ec0507000a0037000080200060409000c9
:100e20008040e800008020006140980060002000c1
:100e3000e40507000000000001003700000000008a
:100e40000080fa004f03be004f02be004f01be00fb
:100e50004f00be003600f900004006003600f800e2
:100e6000809fbe00829fbe00849fbe00869fbe0002
:100e70000000fa00804180000000e0000200320023
:100e80008041800000000100f097200010407800b1
:100e90008040e800f097200001487800e0972000ab
:100ea00011c0b300014878008500a9000080fa0055
:100eb0004f03be004f02be004f01be004f00be00f8
:100ec0003600f900004006000040da000000fe0095
:100ed000000005000001be001b0007000470a70011
:100ee00003f0a10003f8a30013003a006509b10064
:100ef00010003200090035006928e10002003500c9
:100f0000010028000000050000004000818048002a
:100f10008502e900fcff3a0000000600f88f42005d
:100f2000050035008100d1000080d3008502e80073
:100f3000fcff3a00000006008000eb000000050006
:100f40006011b8002a013700c70ade00f107b200bd
:100f5000f50fb20008003200e1cf4200020032007b
:100f60000170a00024000500810f70000100320014
:100f70000408050044000500810f700002003a00db
:100f8000140005008502e9000000400081c048000f
:100f9000fcff3b000170a000240005006022b800a7
:100fa000060220000000d0008180d2000482d2001e
:100fb0008582d2000000a0000202520083825a0003
:100fc000030031000202420083824a000000a100b7
:100fd0000603e900f3ff3a0000000600efff0700f8
:100fe0000400be000000060003836800070028001c
:100ff00007036300470ade000480a100c71ade0071
:101000000580a100f70f20000720e1004200320018
:101010000728e10040003200889fbe008a9fbe0082
:101020008c1f7800f107b200f307b2000400e00063
:10103000640032000170a0000500e000680032008a
:101040000370a00085054200eb07b1000204b80060
:101050000302b8008484440060854a00020ab80094
:10106000848444000a854a00030ab8000405450048
:10107000040033000804d0008984d2000a85d2001d
:101080008b05e9006158e1003d00350002102000a9
:10109000090161000308200089816100f707200031
:1010a0008783640008867300c84cde00c853dd00e7
:1010b000878474004855de000300e000060032001b
:1010c00082037600040032008904e80060054d00c8
:1010d0000a88a3000c003a00f70f20000758e1002f
:1010e00044003d000a70a100c75ddd000a8575005f
:1010f0008a007300090078004f0678004f05be0093
:101100004f04be00000006000a05d1008984d30008
:101110008b05e800f0ff3700881f78000604780090
:1011200090000700070278000001fd008101fd002a
:101130008c00070087027800850372000778a300ff
:10114000050032000001fd008101fd009f00070045
:101150004f04780000000600850372000748a300d2
:1011600003003200f0ff2f00f1ff2700f8ff3700e7
:101170000000200001f8270088807000f4ff37008d
:10118000880178004848dd00808171004848de0011
:10119000c850dd0001007000c850de000604780071
:1011a0000b0178001600070088807000d2ff37001e
:1011b0000500e00005003200170020003a0007009b
:1011c0009dff370081037000f9ff3a008600780028
:1011d0004f0678004f05be004f04be00000005001a
:1011e00083037100f9ff3200270020002e00070062
:1011f00094ff370001f8270086807000f4ff370065
:101200000100e00026003200610111007810e100c9
:1012100023003c006022b8007010e100040035009b
:1012200080027800010078008000eb00700151001e
:101230000200e0000900340070031100062add00fe
:10124000822ade008603dd00878272000200de0053
:10125000860bdd00070070008208de0084817100cb
:10126000f4ff2700048262008481710004002800da
:10127000848262006102600005f0a60000000600a2
:1012800004827100070032000000e800e08048009e
:10129000000006000002be006000b800efff37004b
:1012a0006000b80000000600889fbe000004eb004c
:1012b0006138e10016003a000100e00008003a0041
:1012c000c800de004800dd00880020000100e000ca
:1012d00003003a00c800de004800dd006804440056
:1012e0008184cf00e9845400060034008908dd00c1
:1012f000f08314008703de00878070000900dd00a2
:1013000009044400610214004f04be0000000600fe
:101310000300e00008003a00c811de004811dd00bb
:10132000880020000300e00003003a00c811de003e
:101330004811dd00680444008384cf00e984540030
:10134000060034008919dd00f08314008713de00e5
:10135000878171000911dd0009044400e1021400d5
:10136000e9ff37002700200001f0a7001700200048
:10137000470bde00f60fb200040032000643e8001f
:101380000a0032004702b3000000060001037800a3
:10139000f607b2000603700002003a000703b3002c
:1013a000000006008702b300000006000103780079
:1013b000f607b20006037000020032000770a000ba
:1013c000000006000760a000000006000478a300eb
:1013d000040032000578a300030032000168a30076
:1013e00001003a000200be000160a00000000600fb
:1013f000889fbe008a9fbe000082700004027100b8
:1014000004827100260032000004be000200be000b
:101410006011b8006b092000950220000182cf0006
:101420000a0039000541b1000082cf0007003900f1
:101430000541b1000982cf00040039000541b10027
:101440000882cf00010039000541b1000542520079
:10145000120032000a003b008281710061016400c9
:101460008100d1000080d3008984d3000884d30098
:101470008b05e8000442e800f7ff3a000700370058
:101480000804440089844c00000048008180480022
:101490008b05e9000442e900f9ff3a000300070068
:1014a0004f05be004f04be00000006008100200072
:1014b000618055000b003d000b00200061fe2f00f5
:1014c0000100e1001d0034008281710061016400af
:1014d0008904d1000884d3000000e800faff3a0034
:1014e00071002000610064000300700002006000d1
:1014f0000900320061044400e0844c000988a50022
:10150000050032008b05e8006808e10002003a009f
:101510008904d1000884d300f20f20000258e100b2
:1015200005003d00c75ddd00f907b2008980750048
:1015300008007800000006000bf827008b007800f8
:101540000000050080007800040037003104e0004e
:1015500002003a000000510000000600010178007e
:101560000108a300f9ff3a008101780031017800f9
:10157000f4ef2f00020242000281ea000201620041
:101580000408280004016100f7ff3200830078009e
:10159000010178003104e000fdff3a000000510035
:0415a0000000060041
:020000040000fa
:1015a40041440000433a0000000d00000a0000001e
:020000040000fa
:1015b4000000fa0097e0a90097c0a900800020006d
:1015c400801188003222ef0020022000c011880020
:1015d4003062a80060952000f040880060952000eb
:1015e400e0408800f0952000d0408800f09520006d
:1015f400c04088002068ef0080b220000700070088
:1016040060b420001400070097c0a80031e2a800cd
:101614003342a8000080fa00000006000200fa002d
:10162400000f78001e0078000000e00003003a007c
:1016340080b2200010418800020037009e0078002c
:10164400114188000080fa00000006000000fa0042
:101654000080fa00000006000200fa00000f780083
:101664001e0078000000e00003003a0060b420008f
:1016740020418800020037009e0078002141880044
:101684000080fa00000006000000fa000080fa0062
:10169400000006000200fa000040eb00004f780052
:1016a40000000000d1408000c0408000808f5000c6
:1016b400fcff3200d0408000104f7800d040800002
:1016c4000000e800d0408800d140800080962000cf
:1016d400808f500002003a00f0952000d04088002e
:1016e4001e4078000080fa00000006000200fa00a4
:1016f400004f7800000000001c0007000004a20056
:101704000004e000fcff3a00e04080001e4878003e
:10171400e04080000000e800e0408800e1408000f4
:10172400f0952000808f500002003a006095200060
:10173400e040880097e0a8000080fa00000006005e
:101744000000fa00d1408000c040800000806800a2
:1017540000f0a7000000ea000000ea004f00de00ed
:10176400004078000080fa00000006000400fa003f
:10177400f140800011079800e14080001e009000b5
:10178400808f5000060031009e009000e0408000f1
:10179400008050000000e900000f780005003700c9
:1017a4009e009000e04080000080500068004000ef
:1017b400000f78001e00780000f0a7000000ea0087
:1017c4000000ea004f00de00004078000080fa00cc
:1017d400000006000000fa00e1408000f0408000b4
:1017e400808f500009003a00911180000010200001
:1017f4000080600000f0a7000000ea000000ea009a
:101804004f00de0000407800010037000040eb008c
:101814000080fa00000006000400fa00c1408000c5
:1018240011079800d04080009e009000808f5000e7
:10183400060031009e009000d040800000805000df
:1018440069004000000f7800030037009e009000fc
:10185400d0408000008f5000f00f20009e007800e0
:10186400808f50000200360000c0eb0002003700f9
:101874001e007800004078000080fa000000060096
:101884000400fa00f140800011079800e140800054
:101894001e009000808f5000060031009e009000d2
:1018a400e0408000008050000000e900000f780054
:1018b400050037009e009000e0408000008050004a
:1018c40068004000000f7800f00f20009e007800b0
:1018d400808f50000200360000c0eb000200370089
:1018e4001e007800004078000080fa000000060026
:1018f4000800fa002007980031079800c6ff070087
:101904000080fb00000f78003e0090009e0f500006
:1019140002003100be009000010f78000000eb00cf
:1019240010079800090037005aff0700ae00900026
:10193400804878002e0090000000e80020079800fe
:101944001e0090000000e800100798001e009000a0
:101954009e0f5000f4ff39001e0078000080fa004a
:10196400000006000800fa002007980031079800dc
:10197400c3ff07000080fb00000f78003e009000ca
:101984009e0f500002003100be009000010f78004d
:101994000000eb0010079800090037002e009000ab
:1019a40010407800ae0090008100e8002107980004
:1019b4004eff07001e0090000000e800100798008a
:1019c4001e0090009e0f5000f4ff39001e007800a6
:1019d4000080fa00000006000400fa000000eb009a
:1019e400000f78008cff070020479800a4ff070031
:1019f400304798002e4090000080fb000000e0007b
:101a040003003200e90f50000300320004003700e5
:101a14001e20a000040037001e00a00002003700b2
:101a24001e10a000000000003e4090000080fb005b
:101a34000000e00003003200e90f50000300320010
:101a4400040037001e30a000020037001e40a00032
:101a5400000000001e0078000080fa00000006006c
:101a64000400fa0010079800d14080001e00900086
:101a7400008f4000020037009e007800698f5000fc
:101a8400809620009e007800808f5000faff3e0070
:101a94001e007800104078000080fa000000060064
:101aa4000000fa005cff07000080fb000000e90072
:101ab4004f00de00004078000080fa0000000600bd
:101ac4000000fa006eff07000080fb000000e90040
:101ad4004f00de00004078000080fa00000006009d
:101ae4000000fa00901180000080fa000000060057
:101af4000000fa0062ff07000004e000100032005a
:101b0400f1408000e0408000808f500006003600e5
:101b1400f040800080007800e040800000805000a9
:101b24000000e90007003700f040800080007800e2
:101b3400e040800000805000680040000100370051
:101b44000000eb000080fa00000006000000fa002c
:101b540031ff07000004e00010003200d140800093
:101b6400c0408000808f500006003600d0408000c6
:101b740080007800c0408000008050000000e90030
:101b840007003700d040800080007800c04080000b
:101b94000080500068004000010037000000eb00a6
:101ba4000080fa00000006000000fa0031e2a800fc
:101bb4003342a8000080fa00000006000000fa008a
:101bc40031e2a9003342a9000080fa0000000600b7
:101bd4000800fa0080c1b300004f7800f0c0b300e1
:101be400404798000040eb005047980080c1b30084
:101bf400004f78009e80fb006601470064004700a8
:101c0400820178000101780011c0b3007902070055
:101c1400000000003e009000e10f5000fdff320084
:101c24009e80fb0066014700650047008201780042
:101c34000101780011c0b300870207000000000012
:101c44003e009000e10f5000fdff32003e00900086
:101c5400e20f500003003a00100020001007980023
:101c6400020037000000eb00100798005e4090006f
:101c74000080fa00000006000600fa0080c1b300ec
:101c8400004f780000c2b300104798000040eb00fa
:101c9400204798009e80fb00640147000e00e80086
:101ca400820178000101780011c0b30051020700dd
:101cb400000000002e009000e10f5000fdff3200f4
:101cc4009e80fb00640147000e80e80082017800da
:101cd4000101780011c0b3005f020700000000009a
:101ce4002e009000e10f5000fdff32002e409000c6
:101cf4000080fa00000006000600fa0080c1b3006c
:101d0400004f780000c2b3001047980000c2b3002f
:101d14002047980070c3b300304798009e80fb00b2
:101d2400640147000e80e800820178000101780018
:101d340021c0b3002f020700000000002e00900015
:101d4400e10f5000fdff32000080fa0000000600a1
:101d54000600fa0080c1b300004f780000c2b3004f
:101d64001047980000c2b3002047980070c0b30029
:101d7400304798009e80fb00640147000e80e80015
:101d8400820178000101780021c0b3001902070024
:101d9400000000002e009000e10f5000fdff320013
:101da4000080fa00000006000c00fa0080c1b300b5
:101db400004f780080c2b3006047980090c2b3001f
:101dc4007047980080c1b300004f78009e80fb00ec
:101dd4006a0147006600470082017800010178002b
:101de40011c0b30003020700000000005e00900071
:101df400e10f5000fdff32009e80fb006a014700a6
:101e040068004700820178000101780011c0b30026
:101e140011020700000000005e009000e10f500076
:101e2400fdff32009e80fb006a0147006700470007
:101e3400820178000101780011c0b300ed010700b0
:101e4400000000005e009000e10f5000fdff320032
:101e54009e80fb006a014700680047000000e8001c
:101e6400820178000101780011c0b300fa01070073
:101e7400000000005e009000e10f5000fdff320002
:101e84005e009000e20f500003003a0010002000b2
:101e940010079800020037000000eb0010079800bc
:101ea4001e4890000080fb00200798002e00900040
:101eb4004800dd00200798000e4890000080fb00d9
:101ec400ae00900000804000200798002e00900093
:101ed4000080fa00000006000c00fa0080c1b30084
:101ee400004f7800a0c2b30060479800b0c2b300ae
:101ef4007047980080c1b300004f78009e80fb00bb
:101f04006a014700660047008201780001017800f9
:101f140011c0b300b7010700000000005e0090008c
:101f2400e10f5000fdff32009e80fb006a01470074
:101f340068004700820178000101780011c0b300f5
:101f4400c5010700000000005e009000e10f500092
:101f5400fdff32009e80fb006a01470067004700d6
:101f6400820178000101780011c0b300a1010700cb
:101f7400000000005e009000e10f5000fdff320001
:101f84009e80fb006a014700680047000000e800eb
:101f9400820178000101780011c0b300ae0107008e
:101fa400000000005e009000e10f5000fdff3200d1
:101fb4005e009000e20f500003003a001000200081
:101fc40010079800020037000000eb00100798008b
:101fd4001e4890000080fb00200798002e0090000f
:101fe4004800dd00200798000e4890000080fb00a8
:101ff400ae00900000804000200798002e00900062
:102004000080fa00000006000c00fa0080c1b30052
:10201400004f7800c0c2b30060479800d0c2b3003c
:102024007047980080c1b300004f78009e80fb0089
:102034006a014700660047008201780001017800c8
:1020440011c0b3006b010700000000005e009000a7
:10205400e10f5000fdff32009e80fb006a01470043
:1020640068004700820178000101780011c0b300c4
:1020740079010700000000005e009000e10f5000ad
:10208400fdff32009e80fb006a01470067004700a5
:10209400820178000101780011c0b30055010700e6
:1020a400000000005e009000e10f5000fdff3200d0
:1020b4009e80fb006a014700680047000000e800ba
:1020c400820178000101780011c0b30062010700a9
:1020d400000000005e009000e10f5000fdff3200a0
:1020e4005e009000e20f500003003a001000200050
:1020f40010079800020037000000eb00100798005a
:102104001e4890000080fb00200798002e009000dd
:102114004800dd00200798000e4890000080fb0076
:10212400ae00900000804000200798002e00900030
:102134000080fa00000006000800fa000040eb00ee
:102144004047980000c5b300304798000040eb00ba
:10215400204798002b0037003e4090008080fb0011
:10216400660147006400470082017800010178009d
:1021740011c0b3001f010700000000003e009000e2
:10218400e10f5000fdff32003e4090008080fb00d4
:10219400628320002e4090000080fb004400dd009c
:1021a40000004100660147008201780001017800c7
:1021b40001c1b30028010700000000003e009000a8
:1021c400e10f5000fdff32003e009000e20f50008e
:1021d40009003a0010002000000f78004e409000e3
:1021e40070404000404798002e4090000040e800b6
:1021f40020479800030037000000eb00000f780030
:10220400030037002e409000ef4f5000d2ff3600fd
:102214001e0078000080fa00000006000000fa00aa
:10222400c5ff07000080fa00000006002000fa0045
:10223400600f9800615f9800725f980000052000ad
:10224400300798006e5890000080fb00100798003b
:10225400fe589000014f98007e5890008080fb004b
:102264006e5890000080fb0080804000f00f20003a
:10227400808f50003b003c00360037001e00900069
:10228400f00f50000600360000c1b300404798002c
:102294001e009000700050001007980004003700e2
:1022a4001e009000404798000000eb0010079800c3
:1022b40010c0b300504798000d0037005e409000f6
:1022c4000080fb00de4090008180fb008100e9007b
:1022d4006e099000810041009140780000004700a1
:1022e400014898005e4090000040e8005047980084
:1022f400de4090004e40900080cf5000efff36004b
:102304004e4090008040e8007a0147006800470092
:10231400820178003e019000b60007000000000032
:102324005e089000e10f5000fdff32005e0890004f
:10233400e20f500003003a0010c0b300004f7800d1
:10234400040037000040eb00004f7800000000005c
:10235400060037001e0090000000e000c7ff3a00ae
:10236400020037000040eb00004f78001e40780068
:102374000080fa00000006001800fa00300f9800f0
:102384000040eb00404798000040eb0050479800a5
:102394000040eb00204798000d0037002e409000cd
:1023a4000080fb000080e800ae4090008180fb00cc
:1023b4003e099000810041009140780000004700f0
:1023c400414098002e4090000040e80020479800cb
:1023d4002e409000ee4f5000f0ff360000c5b300d1
:1023e400304798003e4090008080fb007401470015
:1023f40064004700820178000101780001c1b30044
:102404007c000700000000002e089000e10f50003f
:10241400fdff32002e089000e20f500003003a0046
:1024240010002000000f7800020037000000eb00cd
:10243400000f78001e0078000080fa0000000600fb
:102444000800fa000040eb00404798000040eb0011
:102454005047980000c5b300004f78009e80fb00f1
:10246400660147006400470082017800010178009a
:1024740021c0b3005f000700000000003e00900090
:10248400e10f5000fdff32009e80fb0060832000be
:10249400660147008201780001017800e1c0b300c1
:1024a4006d000700000000003e009000e10f5000a6
:1024b400fdff32003e009000e20f500003003a009e
:1024c4001000200010079800020037000000eb0005
:1024d40010079800608320000080fa0000000600c6
:1024e4000000fa0014ff0700608320000080fa0057
:1024f400000006000000fa00008020008196200001
:1025040011009800008020008196200001087800c6
:1025140000802000a00090000110a000210098007d
:1025240000802000a00090000100a100210098007c
:10253400008020008040eb006140980050022000a1
:102544002010880000002800301088000822ef00c6
:102554008620a9009620a8000080fa00000006004a
:102564000200fa0000802000e0409000014f780053
:102574001e4078000080fa00000006000000fa0007
:102584006040800066004000604088000ac8bf00c8
:102594000040e9000ae8b7000ac8bf000004e000f0
:1025a40003003a0040002000404088000200370049
:1025b40010002000404088000080fa00000006005f
:1025c4000200fa00000f78000642a8007040800064
:1025d400200090000000e000030032007040800002
:1025e400200090001e0878000828ef000080fa0000
:1025f400000006000800fa00000f78002147980048
:1026040022079800330798000080200020009000e3
:10261400610060000000e0000a003a00ae01900092
:102624002e4190009e00780040972000770007001c
:102634003e0190004197200010c0b3001f00070026
:10264400030037003e0090008000eb000108780092
:102654000080fa00000006000800fa00000f78006d
:102664002147980022079800330798000080200033
:1026740020009000610060000000e0000a003a00c1
:10268400ae0190002e4190009e007800e09620005c
:10269400460007003e019000e196200010c0b30000
:1026a40006000700030037003e0090008000eb00a6
:1026b400010878000080fa00000006000600fa0015
:1026c400004f78001107980022079800008020002e
:1026d40020009000610060000000e0002e003a003d
:1026e4002e009000110020000108780000802000d6
:1026f400100078009e0090001100980000802000d7
:10270400100078001e487800008020001000780037
:10271400ae00900021009800008020001000780096
:10272400e6004000008020000108780000802000be
:1027340090007800e0962000808f500003003a005b
:10274400008020008196200001087800008020008d
:10275400a00090000110a10021009800008020003a
:10276400900090000080200010007800808f5000be
:1027740004003a0000802000a00090000100a000a6
:1027840021009800404080000000e00005003a006d
:102794008620a800030037002e0090008000eb0084
:1027a400010878000080fa00000006000800fa0022
:1027b400000f7800110798004247980033079800eb
:1027c4003e00900000004000800078001e00780069
:1027d400010878001e00780010007800800078005e
:1027e4000100a0001e007800010878001e00780097
:1027f400ce409000214098001e0078009e0090007a
:10280400210098000080fa00000006000800fa0089
:10281400000f78001107980042479800330798008a
:102824003e00900000004000800078001e00780008
:10283400010878001e007800ce40900021409800e6
:102844001e0078009e009000210098000080fa008d
:10285400000006000000fa00008020002000900024
:102864006200600000f0a7000000ea000000ea0037
:102874004f00de00004078000080fa0000000600ef
:102884000000fa0000802000200090006100600039
:1028940000f0a7000000ea000000ea004f00de009c
:1028a400004078000080fa00000006000000fa00f2
:1028b4000080fa00000006000c00fa00204f980087
:1028c400ae48900080c7b30080cf500020003e0087
:1028d4002e4890000080fb008000eb00f20f2000e7
:1028e4000289b900020178006002b900840178000d
:1028f40003014100f30f20000300b800010141006f
:10290400820078008207200003002000a2f907005b
:10291400100798001e0090008000eb0087f9070064
:102924006266260063f82300aef9070068f9070021
:10293400100798009e009000f00f2000808f500038
:1029440005003600f00f2000100798000200370041
:10295400f00f2000100798001e0090004400dd00d6
:10296400100798001e0090004800de000040780028
:102974006f406000604798001e009000804078001f
:1029840000cfb30000c0600070479800e800470023
:102994006600470081017800d200200021c0b30006
:1029a40014ff0700000000004e009000e10f5000eb
:1029b400fdff32004e009000e20f500003003a0089
:1029c40010c0b300004f7800020037000040eb0055
:1029d400004f78001e4078000080fa0000000600d6
:1029e4001000fa00604f98006e4890000004e00068
:1029f4000b003a000040eb00404798000040eb0019
:102a0400504798008e80e8006400470081017800f8
:102a1400d200200021c0b300f6fe070035003700c5
:102a24006e489000e14f50000b003a0040c0b300e4
:102a3400604798000040eb00704798008e80e800e3
:102a44006600470081017800d200200021c0b30055
:102a5400e8fe0700270037006e489000e24f500060
:102a64000b003a0080c0b300004f98000040eb0018
:102a7400104f98008e80e8006800470081017800bc
:102a8400d200200021c0b300dafe0700190037008d
:102a94006e489000e34f50000b003a00c0c0b300f2
:102aa400204f98000040eb00304f98008e80e800e3
:102ab4006a00470081017800d200200021c0b300e1
:102ac400ccfe07000b003700f0c0b300404f980065
:102ad40000cfb300504f98008e80e8006c00470090
:102ae40081017800d200200021c0b300c1fe07009c
:102af400000000001e009000e10f5000fdff3200b6
:102b04001e009000e20f500003003a0010c0b30012
:102b1400004f7800020037000040eb00004f7800bf
:102b24001e4078000080fa00000006000600fa004b
:102b3400200798000040eb00004f78002e00900022
:102b44007ffa0700004078000040e9001047980031
:102b5400180037001e00fb00ae009000008040000b
:102b640090407800214798001e00fb00ae009000c2
:102b7400008040009e4090008100fb002e019000e8
:102b84008100410091407800014878001e40900087
:102b94000000fb00ae00900000804000ae409000ba
:102ba400014878001e4fe8001e4090000040e900f4
:102bb400104798001e4090009e40780080cf50003f
:102bc400e4ff35000080fa00000006000600fa0069
:102bd40010079800210798000040eb00004f780090
:102be4001e80fb00ae009000808140001e0190001a
:102bf400d0cc2c000010b8004308de006a00b900f5
:102c04000000780000005100004078000043b0004c
:102c1400804978001e4fe8009e009000d0cc2c0024
:102c24000008b8004308de00100798001e0090005a
:102c34000000e000eaff3a001e80fb00ae009000b6
:102c4400008040008040eb00014878002e00900096
:102c5400b6ff07000080fa00000006000800fa0032
:102c6400881f780010079800210798003207980001
:102c74000040eb00004f78001e80fb00be00900077
:102c8400008440001e009000ae009000a2002000ce
:102c940003002000d0f80700004078000043b00093
:102ca400004c78001e4fe8001e009000ae0090001b
:102cb400a200200003002000b7f8070010079800c6
:102cc400210798001e009000ae009000e00f500015
:102cd400e08f5800e8ff3a001e80fb00be00900021
:102ce400008040008040eb00014878003e009000e6
:102cf4008eff07004f0478000080fa0000000600f1
:102d04000400fa00100798000040eb00004f780020
:102d1400060037001e80fb009e00900000804000eb
:102d2400104078001e4fe80070fa07001e80fb0078
:102d34009e00900000804000104078000004e000f5
:102d4400f4ff3a000080fa00000006000400fa00d4
:102d5400100798000040eb00004f78000600370091
:102d64001e80fb009e009000008040001040780010
:102d74001e4fe8005dfa07001e80fb009e009000d5
:102d840000804000104078000004e000f4ff3a00a6
:102d94000080fa00000006000000fa002023a800ca
:102da4000080fa00000006000200fa00000f78001c
:102db4001e007800e20f500019003200e20f5000ac
:102dc40005003e000000e0000a003200e10f500060
:102dd4000d0032002a003700e40f50001c003200be
:102de400e40f500014003900e50f50001e003200bb
:102df400230037004119800000ff2f00008060008d
:102e0400401988001e0037004119800000ff2f0080
:102e1400008060000000a0004019880018003700fe
:102e24004119800000ff2f00008060000010a00006
:102e340040198800120037004119800000ff2f005c
:102e4400008060003000b300401988000c00370097
:102e54004119800000ff2f00008060000020a000c6
:102e640040198800060037004119800000ff2f0038
:102e7400008060005000b30040198800000000008a
:102e84000080fa00000006000800fa0020079800fd
:102e9400310798002e019000be0190004418dd0017
:102ea400cc10de00810070004410dd00008fbe00f5
:102eb4001e00be00340207000080fa000000060075
:102ec4000000fa002023a8000080fa000000060099
:102ed4000000fa0010c0b30035e8b7000080fa0023
:102ee400000006000000fa0020762100f10007002f
:102ef400a0762100340107000000eb00aaff0700c0
:102f0400a5ff07003568ef003468ef00f100070003
:102f14000080fa00000006000000fa000021ef0023
:102f2400f0312000100888000000280020088800e4
:102f3400604180000000e00002003a00607e210051
:102f4400240007008460a9009460a800a0972000d2
:102f54008040eb00014878000080fa000000060081
:102f64000200fa00000f78009e0078001108880023
:102f7400a09720008040eb00014878000080fa0010
:102f8400000006000000fa00100880000080fa002b
:102f9400000006000200fa00000f78009e0078008e
:102fa40001088800a09720008040eb0001487800c9
:102fb4000080fa00000006000000fa00000880000b
:102fc4000080fa00000006000000fa000080fa0009
:102fd400000006000200fa00000f78009460a900c7
:102fe4009e007800614188009460a8000080fa0087
:102ff400000006000000fa00a09720008040eb00cb
:10300400014878009460a80005e1a8000080fa0057
:10301400000006000000fa0005e1a9009460a90080
:103024000080fa00000006000200fa00a0972000c9
:10303400104f78001e4078000004e00003003200c6
:10304400a09720008040eb00014878001e407800e3
:103054000080fa00000006000000fa00b09720008b
:10306400104078000080fb000080fa000000060099
:103074000000fa00b09720008040eb00014878007f
:103084000080fa00000006000000fa000621ef00ac
:103094007038210060088800000228008008880039
:1030a400704180000000e00002003a00e089210045
:1030b4002400070084e0a90094e0a800c097200041
:1030c4008040eb00014878000080fa000000060010
:1030d4000200fa00000f78009e0078006108880062
:1030e400c09720008040eb00014878000080fa007f
:1030f400000006000000fa00600880000080fa006a
:10310400000006000200fa00000f78009e0078001c
:1031140031088800c09720008040eb000148780007
:103124000080fa00000006000000fa003008800069
:103134000080fa00000006000000fa000080fa0097
:10314400000006000200fa00000f780094e0a900d5
:103154009e0078007141880094e0a8000080fa0085
:10316400000006000000fa00c09720008040eb0039
:103174000148780094e0a80011e1a8000080fa005a
:10318400000006000000fa0011e1a90094e0a90083
:103194000080fa00000006000200fa00c097200038
:1031a400104f78001e4078000004e0000300320055
:1031b400c09720008040eb00014878001e40780052
:1031c4000080fa00000006000000fa00d0972000fa
:1031d400104078000080fb000080fa000000060028
:1031e4000000fa00d09720008040eb0001487800ee
:1031f4000080fa00000006000000fa000a21ef0037
:1032040030422f00700888000003280090088800ce
:10321400804180000000e00002003a006095210037
:10322400240007008500a9009500a800e09720006d
:103234008040eb00014878000080fa00000006009e
:103244000200fa00000f78009e00780071088800e0
:10325400e09720008040eb00014878000080fa00ed
:10326400000006000000fa00700880000080fa00e8
:10327400000006000200fa00000f78009e007800ab
:1032840051088800e09720008040eb000148780056
:103294000080fa00000006000000fa0050088000d8
:1032a4000080fa00000006000000fa000080fa0026
:1032b400000006000200fa00000f78009500a90043
:1032c4009e007800814188009500a8000080fa00e3
:1032d400000006000000fa00e09720008040eb00a8
:1032e400014878009500a80013e1a8000080fa00c6
:1032f400000006000000fa0013e1a9009500a900ef
:103304000080fa00000006000200fa00e0972000a6
:10331400104f78001e4078000004e00003003200e3
:10332400e09720008040eb00014878001e407800c0
:103334000080fa00000006000000fa00f097200068
:10334400104078000080fb000080fa0000000600b6
:103354000000fa00f09720008040eb00014878005c
:103364000080fa00000006000000fa00000e2800a9
:10337400001988002223ef0030f020002019880073
:103384002823ef003023ef00009e21000e000700e9
:1033940085a0a90095a0a80051058000f0f82f0091
:1033a4008080600000052000010070005005880046
:1033b40021e3a8000080fa00000006000000fa00e3
:1033c4000080fa00000006000200fa00000f7800f6
:1033d4001e007800404188000080fa0000000600ca
:1033e4000000fa002023a8000080fa000000060074
:1033f4000000fa002023a9000080fa000000060063
:103404000800fa0030079800101980004200de001e
:103414006f4060000080fb0020079800003020000f
:10342400100798000000eb00000f78000b00370035
:103434001e00780000004000be00900000804000a4
:103444009e00900091007800010878001e00900012
:103454000080e800100798001e0fe8009e00780026
:103464002e009000808f5000f1ff36001e0078007f
:083474000080fa0000000600d0
:020000040000fa
:10347c003609000020000000000000002a080000af
:10348c000200000002000000ffff000056090000cf
:10349c001200000000000000180800000e000000e0
:1034ac00000000007a09000002000000000000008b
:1034bc002c08000002000000000000007c09000045
:1034cc0002000000000000002e08000002000000b6
:1034dc0000000000260800000400000000000000ae
:1034ec006809000012000000000000000008000045
:1034fc0018000000000000007e090000020000001f
:10350c000000000030080000020000000000000075
:10351c003208000002000000000000003408000027
:10352c00020000000000000036080000000100004e
:08353c00000000000000000087
:020000040000fa
:103544000000fa00210680000070200001007000d5
:103554002006880091058000f0ff2800808060002c
:10356400000026000100700090058800910580008d
:103574000070200001007000900588005105800053
:10358400f0f82f008080600000032000010070002c
:103594005005880061058000f0f82f00008060006d
:1035a4000040a000600588006105800080ff2f00b6
:1035b400008060000000a0006005880041058000d4
:1035c40080ff2f00008060000000a00040058800fc
:1035d40031058000f0ff2800808060000000230097
:1035e400010070003005880021058000f0ff2800ec
:1035f4000080600000e0a000200588000080fa0040
:10360400000006001000fa006d00070035fe0700f8
:10361400e202a9006000b800100798002107980092
:10362400060037001e009000ae00900061004000cc
:10363400e080480010079800210798001e019000c0
:10364400ae019000f03f2f0011002000800f5100c8
:10365400818f5900f3ff3600e202a8000100370011
:103664000000000035c8bf000004e000fcff320089
:103674003568ef0020ad2800b4fd07000118800074
:10368400010f780066004700800078001e00780073
:103694004efd07006600470099fd070070ad280045
:1036a400aafd0700efff37000000fa00c422ef0074
:1036b400ca22ef00d022ef00d622ef00dc22ef0076
:1036c4000002200010178800e822ef00c022ef005b
:1036d400f00f2000301688000000270060168800d4
:1036e400d222ef00d822ef0040012000f01688001b
:1036f400c0002000201788006820ef006a20ef0037
:10370400c026ef00c626ef00cc26ef00d226ef003d
:10371400d826ef00de26ef00e426ef0000fc2f00a1
:10372400601988000080fa00000006000000fa001a
:1037340000002300203a88004827ef007027ef009c
:103744007227ef007427ef0012002000800720008a
:10375400a109200033742000804978008149780051
:10376400824978000001eb0060042000710520000c
:1037740023742000804978008149780082497800c8
:083784000080fa0000000600bd
:020000040000fa
:10378c00f03fb1000180b10006003500ee030900e6
:10379c0000000000403fb1000180b100fbff3d0084
:1037ac001000b000203fb00002003500008009007e
:0837bc000000000000000600ff
:020000040000fa
:1037c4000000fa00b8ff0700d8ff07005cff0700fd
:1037d40077f7070047fb0700e3fe070086fe0700b4
:1037e40029fe0700ccfd07000080fa000000060057
:1037f4000200fa00000f78009e0078005141880012
:10380400ffff37000000fa00609320008007780073
:10381400e0942000000188000080fa000000060007
:020000040000fa
:020000040001f9
:0457f8009ff9000015
:020000040000fa
:020000040001f9
:0457fc007f3f0000eb
:00000001FF
