:020000040000fa
:080000000002040000000000f2
:020000040000fa
:040008006407000089
:020000040000fa
:04000c00e802000006
:020000040000fa
:040010002a030000bf
:020000040000fa
:0400140008030000dd
:020000040000fa
:040018004a03000097
:020000040000fa
:04001c006407000075
:020000040000fa
:040020006407000071
:020000040000fa
:04002400640700006d
:020000040000fa
:040028006407000069
:020000040000fa
:04002c006407000065
:020000040000fa
:040030006407000061
:020000040000fa
:040034004204000082
:020000040000fa
:040038006407000059
:020000040000fa
:04003c006407000055
:020000040000fa
:040040006407000051
:020000040000fa
:04004400780400003c
:020000040000fa
:040048002e0700007f
:020000040000fa
:04004c006407000045
:020000040000fa
:040050006407000041
:020000040000fa
:04005400640700003d
:020000040000fa
:040058006407000039
:020000040000fa
:04005c00ae040000ee
:020000040000fa
:040060006407000031
:020000040000fa
:04006400640700002d
:020000040000fa
:040068006407000029
:020000040000fa
:04006c00de040000ae
:020000040000fa
:040070006407000021
:020000040000fa
:04007400640700001d
:020000040000fa
:040078006407000019
:020000040000fa
:04007c006407000015
:020000040000fa
:040080006407000011
:020000040000fa
:04008400640700000d
:020000040000fa
:040088006407000009
:020000040000fa
:04008c006407000005
:020000040000fa
:040090006407000001
:020000040000fa
:0400940064070000fd
:020000040000fa
:0400980064070000f9
:020000040000fa
:04009c0064070000f5
:020000040000fa
:0400a000c603000093
:020000040000fa
:0400a4006a030000eb
:020000040000fa
:0400a80064070000e9
:020000040000fa
:0400ac0064070000e5
:020000040000fa
:0400b00064070000e1
:020000040000fa
:0400b40064070000dd
:020000040000fa
:0400b80064070000d9
:020000040000fa
:0400bc0064070000d5
:020000040000fa
:0400c00064070000d1
:020000040000fa
:0400c40064070000cd
:020000040000fa
:0400c80064070000c9
:020000040000fa
:0400cc0064070000c5
:020000040000fa
:0400d00064070000c1
:020000040000fa
:0400d40064070000bd
:020000040000fa
:0400d80064070000b9
:020000040000fa
:0400dc0064070000b5
:020000040000fa
:0400e00064070000b1
:020000040000fa
:0400e40064070000ad
:020000040000fa
:0400e80064070000a9
:020000040000fa
:0400ec0064070000a5
:020000040000fa
:0400f00064070000a1
:020000040000fa
:0400f400640700009d
:020000040000fa
:0400f8006407000099
:020000040000fa
:0400fc006407000095
:020000040000fa
:040100006407000090
:020000040000fa
:04010400640700008c
:020000040000fa
:040108006407000088
:020000040000fa
:04010c006407000084
:020000040000fa
:040110006407000080
:020000040000fa
:04011400640700007c
:020000040000fa
:040118006407000078
:020000040000fa
:04011c006407000074
:020000040000fa
:040120006407000070
:020000040000fa
:04012400640700006c
:020000040000fa
:040128006407000068
:020000040000fa
:04012c006407000064
:020000040000fa
:040130002c0400009b
:020000040000fa
:04013400640700005c
:020000040000fa
:040208006407000087
:020000040000fa
:04020c00e802000004
:020000040000fa
:040210002a030000bd
:020000040000fa
:0402140008030000db
:020000040000fa
:040218004a03000095
:020000040000fa
:04021c006407000073
:020000040000fa
:04022000640700006f
:020000040000fa
:04022400640700006b
:020000040000fa
:040228006407000067
:020000040000fa
:04022c006407000063
:020000040000fa
:04023000640700005f
:020000040000fa
:040234004204000080
:020000040000fa
:040238006407000057
:020000040000fa
:04023c006407000053
:020000040000fa
:04024000640700004f
:020000040000fa
:04024400780400003a
:020000040000fa
:040248002e0700007d
:020000040000fa
:04024c006407000043
:020000040000fa
:04025000640700003f
:020000040000fa
:04025400640700003b
:020000040000fa
:040258006407000037
:020000040000fa
:04025c00ae040000ec
:020000040000fa
:04026000640700002f
:020000040000fa
:04026400640700002b
:020000040000fa
:040268006407000027
:020000040000fa
:04026c00de040000ac
:020000040000fa
:04027000640700001f
:020000040000fa
:04027400640700001b
:020000040000fa
:040278006407000017
:020000040000fa
:04027c006407000013
:020000040000fa
:04028000640700000f
:020000040000fa
:04028400640700000b
:020000040000fa
:040288006407000007
:020000040000fa
:04028c006407000003
:020000040000fa
:0402900064070000ff
:020000040000fa
:0402940064070000fb
:020000040000fa
:0402980064070000f7
:020000040000fa
:04029c0064070000f3
:020000040000fa
:0402a000c603000091
:020000040000fa
:0402a4006a030000e9
:020000040000fa
:0402a80064070000e7
:020000040000fa
:0402ac0064070000e3
:020000040000fa
:0402b00064070000df
:020000040000fa
:0402b40064070000db
:020000040000fa
:0402b80064070000d7
:020000040000fa
:0402bc0064070000d3
:020000040000fa
:0402c00064070000cf
:020000040000fa
:0402c40064070000cb
:020000040000fa
:0402c80064070000c7
:020000040000fa
:0402cc0064070000c3
:020000040000fa
:0402d00064070000bf
:020000040000fa
:0402d40064070000bb
:020000040000fa
:0402d80064070000b7
:020000040000fa
:0402dc0064070000b3
:020000040000fa
:0402e00064070000af
:020000040000fa
:0402e40064070000ab
:020000040000fa
:0402e80064070000a7
:020000040000fa
:0402ec0064070000a3
:020000040000fa
:0402f000640700009f
:020000040000fa
:0402f400640700009b
:020000040000fa
:0402f8006407000097
:020000040000fa
:0402fc006407000093
:020000040000fa
:04030000640700008e
:020000040000fa
:04030400640700008a
:020000040000fa
:040308006407000086
:020000040000fa
:04030c006407000082
:020000040000fa
:04031000640700007e
:020000040000fa
:04031400640700007a
:020000040000fa
:040318006407000076
:020000040000fa
:04031c006407000072
:020000040000fa
:04032000640700006e
:020000040000fa
:04032400640700006a
:020000040000fa
:040328006407000066
:020000040000fa
:04032c006407000062
:020000040000fa
:040330002c04000099
:020000040000fa
:04033400640700005a
:020000040000fa
:100400002f9820000e7f22000e01880000000000bf
:10041000000020000000e000020032000001200087
:100420002002880014000700a90207000000e00075
:1004300003003a00001522000100200002003700ee
:100440000000200001002000810f70000100320038
:1004500014000700000020000000e000020032004d
:1004600000000200000000005a200200000000000e
:100470000040da000000fe004440a900c001200056
:100480000000e0000300320000002000a00188000e
:100490004440a800000006008a1f78008b1f7800e7
:1004a0000000060091018800800478000000eb0045
:1004b0001a003700e284440032a0b4009905ba0063
:1004c000e284440032a0b4009906ba00e2844400f9
:1004d00032a0b4000006eb00476fde00fd07b2005b
:1004e000636ce10003003a00ebff07000000eb0043
:1004f0000a003700606ce10004003a00005deb0088
:100500008b05e900fdff3e00040037006168e10053
:10051000010032000086eb000b00070019c7ba008b
:100520001905ba000e04e00003003a000a00e000da
:10053000e0ff3a0000000600fe07b2009e018800be
:100540008a047800f5ff3700395dba008b05e900b1
:100550000c003200295dba008b05e900080032006a
:100560000c00e00003003a00e284440032a0b40032
:10057000f5ff370019ddba008b05e900faff3a00f4
:100580008904e800e184440032a0b40000000600c1
:10059000000000000000000000000000000000005b
:1005a000000000000000000000000000000000004b
:1005b000000000000000000000000000000000003b
:1005c000000000000000000000000000000000002b
:1005d0003600f800809fbe00829fbe00849fbe0050
:1005e000869fbe000000fa008020a9000000eb00fa
:1005f000e30f07000080fa004f03be004f02be0069
:100600004f01be004f00be003600f900004006005a
:100610003600f800809fbe00829fbe00849fbe000f
:10062000869fbe000000fa00da0f07008040a90094
:1006300010002000d20f07000080fa004f03be0018
:100640004f02be004f01be004f00be003600f90051
:10065000004006003600f800809fbe00829fbe006a
:10066000849fbe00869fbe000000fa008060a90043
:1006700020002000c20f07000080fa004f03be00d8
:100680004f02be004f01be004f00be003600f90011
:10069000004006003600f800809fbe00829fbe002a
:1006a000849fbe00869fbe000000fa008080a900e3
:1006b00030002000b20f07000080fa004f03be0098
:1006c0004f02be004f01be004f00be003600f900d1
:1006d000004006003600f800809fbe00829fbe00ea
:1006e000849fbe00869fbe000000fa00104180007b
:1006f00000000100f1408000e0408000808f500049
:1007000002003a0097e0a9001900370087e0a9002d
:1007100010003700f0408000904078008180fb009e
:10072000a11188000000e800f0408800f14080003e
:1007300010962000808f500002003a008095200023
:10074000f0408800f1408000e0408000808f500041
:10075000060032009111800000202000008060001f
:100760000000e000ebff3200010037000000000055
:100770000080fa004f03be004f02be004f01be00d2
:100780004f00be003600f900004006003600f800b9
:10079000809fbe00829fbe00849fbe00869fbe00d9
:1007a0000000fa00204180000000010087c0a9007d
:1007b0001e003700c0408000b111800081407800e9
:1007c00001487800c140800090962000808f500042
:1007d00009003200c04080008000e800d040800066
:1007e000808f500004003200c04080000000e8000c
:1007f000c04088000d003700c14080009096200066
:10080000808f500007003a00d140800010962000f1
:10081000808f50000300320010962000c0408800f6
:100820000200370010c0b30020e8b700901180002c
:10083000610060000000e000deff3a000080fa0086
:100840004f03be004f02be004f01be004f00be006e
:100850003600f90000400600801f78000000fa0012
:1008600090118000620060000000e0000100320092
:100870003222a9008c40a9000080fa004f007800c5
:10088000004006003600f800809fbe00829fbe0038
:10089000849fbe00869fbe000000fa006041800079
:1008a0000000e00002003200604180000000010012
:1008b000d0972000104078008040e800d0972000ba
:1008c00001487800c097200011c0b30001487800ab
:1008d0008460a9000080fa004f03be004f02be00f2
:1008e0004f01be004f00be003600f9000040060078
:1008f0003600f800809fbe00829fbe00849fbe002d
:10090000869fbe000000fa00704180000000e000f9
:10091000020032007041800000000100f0972000ca
:10092000104078008040e800f097200001487800ef
:10093000e097200011c0b3000148780084e0a900ce
:100940000080fa004f03be004f02be004f01be0000
:100950004f00be003600f90000400600809fbe0038
:100960003400f80000002000a00188000200fa0016
:100970002104800000002200008060000000e000f0
:100980000a003200000000000019800061006000d1
:100990000000e000fcff320001188000010f780029
:1009a00010c0b30035e8b70085a0a9000080fa00a8
:1009b0003400f9004f00be00004006003600f80089
:1009c000809fbe00829fbe00849fbe00869fbe00a7
:1009d0000000fa008620a9004110800000082000d5
:1009e000008060000000e0000800320008e2a9007a
:1009f0000828ef0070408000200090008000eb008d
:100a0000010878000e28ef000d01370040408000fb
:100a10008000eb00b200200003002000820f500095
:100a2000838f5800fc003e00006001000b0037007f
:100a300039003700750037009c003700f30037009d
:100a4000c8003700d9003700f0003700db0037005e
:100a5000f1003700340037005000370000802000dc
:100a600020009000620060000000e000f3003a0007
:100a7000008020001000900070408800008020005e
:100a800010009000104078000ae8b70000802000b5
:100a9000100090001000900060408800008020004e
:100aa00010009000e6004000008020001100980037
:100ab000008020009000900000972000808f500060
:100ac00003003a0000802000a19620001100980049
:100ad00000802000a00090000100a10021009800eb
:100ae000008020009000900000802000100078001e
:100af000808f500004003a0000802000a000900089
:100b00000110a000210098000602a800200020008b
:100b100040408800ca0037000622a80020002000bc
:100b200040408800c60037004110800000002800c7
:100b3000008060000000e00008003200008020001b
:100b4000604090008040e8000080200061409800f4
:100b50004000200053090700b900370080408000a2
:100b60008000d100f00f200000806000101088008d
:100b70008040800061006000004078000004e000d8
:100b800003003200b000200040408800ac00370075
:100b90003000200040408800a9003700411080004c
:100ba00000002800008060000000e0000800320023
:100bb00000802000604090008040e800008020001d
:100bc0006140980040002000360907009c00370073
:100bd0000622a800804080004800de00e600600099
:100be000000f2000010070008040880080408000dd
:100bf0000000a0008040880010c0b30012e8b700d9
:100c000020002000404088008d00370012c8bf003f
:100c1000e14f50000a003200604080001000780070
:100c2000804088006040800020009000a040880044
:100c3000604080002040900016e8b70001003700b7
:100c40001268ef0081408000f00f2000808f50007c
:100c500009003600804080004800de00e6006000a9
:100c6000000f20000100700010108800a00020007c
:100c700040408800720037008040800010108800db
:100c80008040800061006000004078000004e000c7
:100c90000300320050002000404088006800370008
:100ca000300020004040880065003700411080007f
:100cb00000002800008060000000e0000900320011
:100cc00000802000604090008040e800008020000c
:100cd0006140980009e2a90050002000f1080700d7
:100ce0005700370016c8bf008080fb008100e90074
:100cf000cf08de00814078000040e90016e8b70028
:100d00000104e000100032006040800066004000f6
:100d1000604088000ac8bf000040e9000ae8b70048
:100d20000ac8bf000004e00003003a0020002000d1
:100d3000dc080700420037000622a800200020003f
:100d4000404088003e003700a0408000904078007e
:100d50008180fb00111088000000e800a04088009e
:100d6000370037004110800000002800008060003c
:100d70000000e00009003200008020006040900088
:100d80008040e80000802000614098004000200082
:100d9000c408070009e2a900290037000662a8007c
:100da000800020004040880025003700800020009f
:100db000404088000662a80021003700a040800063
:100dc0000110800081407800014878000000e800b0
:100dd000a040880016c8bf000040e90016e8b70030
:100de00016c8bf000004e0000400320006a2a900fb
:100df00060002000404088000200370006a2a800e2
:100e0000970807000682a8000d0037002000200088
:100e1000a40807000a00370000802000604090000e
:100e20008040e800008020006140980060002000c1
:100e30009c080700000000000100370000000000cf
:100e40000080fa004f03be004f02be004f01be00fb
:100e50004f00be003600f900004006003600f800e2
:100e6000809fbe00829fbe00849fbe00869fbe0002
:100e70000000fa00804180000000e0000200320023
:100e80008041800000000100109820001040780090
:100e90008040e80010982000014878000098200069
:100ea00011c0b300014878008500a9000080fa0055
:100eb0004f03be004f02be004f01be004f00be00f8
:100ec0003600f900004006000040da000000fe0095
:100ed0000000050014002000c0033700f4ff2f00bd
:100ee000be0337000001be003f0007000470a700ea
:100ef00003f0a1006509b100160032000d003500b5
:100f00006828e10006003500f0ff2f00f1ff270000
:100f10000300e00013003b00010028000000050072
:100f200000004000818048008502e900fcff3a0093
:100f300008003700f88f420002003c008000eb0000
:100f4000000005008100d1000080d3008502e80088
:100f5000fcff3a000300e00002003b0060001000cc
:100f6000e0801800000006000001be001e0007001f
:100f70000470a70003f0a10003f8a30013003a00d7
:100f80006509b10010003200090035006928e10050
:100f900002003500010028000000050000004000ac
:100fa000818048008502e900fcff3a00000006004d
:100fb000f88f4200050035008100d1000080d30089
:100fc0008502e800fcff3a00000006008000eb000c
:100fd000000005004f89de00820178009a03370087
:100fe0006011b800a8033700c70ade00f107b2009d
:100ff000f50fb20008003200e1cf420002003200db
:101000000170a00024000500810f70000100320073
:101010000408050044000500810f700002003a003a
:10102000140005008502e9000000400081c048006e
:10103000fcff3b000170a000240005006022b80006
:10104000060220000000d0008180d2000482d2007d
:101050008582d2000000a0000202520083825a0062
:10106000030031000202420083824a000000a10016
:101070000603e900f3ff3a0000000600efff070057
:101080000400be000000060007f827000783610087
:101090000638e10004003a00f7072000878361006a
:1010a0008703710001003a0003f0a200889fbe0090
:1010b0008a9fbe008c9fbe00470ade000480a1000c
:1010c000c71ade000580a100070028000785600020
:1010d00087856100f70f20000720e1009e003200a5
:1010e0000728e1009c003200010678000400e000bf
:1010f000b4003200f7072000878060000170a00074
:101100000500e000c0003200f70720008781610081
:101110000370a000050652000f003a000b50e100da
:101120000b0032000308e10002003a000200e10077
:101130007e00320002045000838458000400310015
:101140000001fd008101fd008402fd008a05fd0013
:101150006044b800210037000520e10005003d0093
:101160000001fd008101fd008402fd008a05fd00f3
:10117000050652007a60e100050035000170a1000b
:101180004722dd00848070008a8070006300370091
:101190006044b800ef02660007ff2f0007066600f4
:1011a0000500e00006003400f08312008714dd0023
:1011b0000511de00071bdd00060171008519de0048
:1011c0007060e100050035000904780082047800b1
:1011d000030178008001eb00700656000b50e1001f
:1011e00003003a00020040008380480004003700fa
:1011f00060041400e0841c00020058008380580042
:101200000188a300060032008100d1000080d300d5
:101210008984d3000884d3000402e8002700370043
:101220000178a30025003a000100e000030032002d
:101230008186cf00698656000a0037008c002000a6
:101240000000e00004003a000900780088047800fb
:101250000004eb00700252008086cf000d064600ad
:101260000c06e9007060e10006003500800078009f
:1012700009007800880478000004eb00700656002e
:10128000700252000c00e0000c0034008c08dd00fd
:10129000f00316000703de00868070000c00dd00fe
:1012a000074bde00060070008c4cdd000743de00bb
:1012b000868474000c44dd000c0252006120e100c1
:1012c000200035006101600007002800878164006c
:1012d000f7ff270087836400070374000300e00022
:1012e0000600320082037300040032000000e800b0
:1012f000e08048000188a3000e003a00f70f2000ac
:101300000720e1004a003d000170a1004722dd00f6
:10131000810072008a8070000000be004f06be008f
:101320004f05be004f04be00000006006000b8007c
:10133000faff37008100d1000080d3000402e800ea
:10134000eeff37000401780089017400a101070055
:101350008a807000f1ff3700f7010700070278006c
:101360000001fd008101fd00f30107008702780004
:10137000850372000778a300040032000001fd001d
:101380008101fd0006020700e4ff370085036200cb
:101390000768a300080032000b50e1000300320090
:1013a000f0ff2f00f1ff2700dcff37000001fd00f8
:1013b0008101fd00d9ff37000468a300d7ff320088
:1013c000faff3700f8ff2700888360000b003a001f
:1013d0000000e00009003a00830364008283730088
:1013e000020032000200be00ccff37000b50e100cb
:1013f000ceff3a000200be00c8ff370014002000f4
:10140000810064003eff3700f8ff270088836100f9
:1014100004003a000200e00002003a008c0078006c
:10142000beff3700150020008301640039ff37003c
:1014300001f827000000200081007500b7ff370089
:10144000889fbe008a9fbe008c9fbe001b002000ac
:101450000202be0005866800060028000606660037
:101460004709de00f20fb200820032000243e800ba
:1014700080003200c729de00f30fb2007d00320089
:101480000343e8007b003200f107b2000170a000c6
:10149000f507b2000570a000c708dd004903de00b3
:1014a000868070004700dd00c72add004923de008a
:1014b000868272004722dd000305510004035000bc
:1014c00085835800030031000000400081804800ff
:1014d0000a05e9008c1f78008a9fbe0004005000b6
:1014e000858058000402420085824a0000004000c6
:1014f000818048000005eb000004be006033b800a6
:101500000406be000d48e10056003100110009003c
:101510004dccd8000c01b8000d02b8008481410008
:1015200060824a008283530003045c0084845c0070
:1015300060055d000a00e00025003a0080057800a3
:101540000d40e10049003100880078000700780074
:10155000110009004d88d8000c01b8000d02b80038
:101560008481410060824a006003110083835b0034
:1015700004045c00e0845c000900e00021003a0003
:101580004f01be000300e0002b003200e3016000c9
:10159000070673008c817100010032006400700046
:1015a0004200de004e5edd000c007000c258de001e
:1015b00001e0a00083010700cf0178008180710065
:1015c0004f06be004f05be004f04be0000000600df
:1015d0008c8343000d044c00e0844c0060054d00fa
:1015e0000000e9000a00e000d4ff32008c834300d1
:1015f0000d044c00e0844c0060054d000000e90043
:10160000ceff37000c0343008d834b0060044c0079
:10161000e0844c000000e9000900e000d8ff32003f
:101620000c0343008d834b0060044c00e0844c00ad
:101630000000e900d2ff37004200de004e5edd0010
:101640000c007000c258de0001e0a000cf0178005d
:101650000300e000daff320060001000e0801800b4
:10166000d7ff3700f0ff2f00aaff3700f0ff2f0051
:10167000b9ff37000404be002f0107008706780079
:101680000004fd008104fd002b01070007836600b4
:101690000678a300030032000960a7000800be001e
:1016a0002c0037000d78a300020032000800be00b5
:1016b000280037000778a30026003a0001f0a100b7
:1016c00009f0a1000668a30003003200f1ff270023
:1016d000f0ff2f00baff37000d68a30003003200af
:1016e0000800be008c807000b5ff37000768a300bb
:1016f00007003a000648a30003003200f1ff27006c
:10170000f0ff2f00aeff37000d48a30003003200aa
:101710006000b8008c807000a9ff37000748a30064
:101720000400320001f82700000020008c807000c7
:10173000a3ff3700760107000004fd008104fd00cf
:1017400002057800720107000802be008a017800d5
:1017500059ff37000160a00012022000b24188004a
:1017600097ff37000100e000120032000500e000a2
:1017700010003200889fbe008a9fbe008c9fbe0072
:101780000006eb0001f8a300030032006000100027
:10179000e08018000cf0a00005f8a3000300320060
:1017a00060021200e0821a000cf0a2008005eb003b
:1017b00041ff37006000b8000200050003836800a5
:1017c0000700280007036300470ade000480a10029
:1017d000c71ade000580a100f70f20000720e100f6
:1017e000420032000728e10040003200889fbe001e
:1017f0008a9fbe008c1f7800f107b200f307b20089
:101800000400e000640032000170a0000500e00068
:10181000680032000370a00085054200eb07b100ac
:101820000204b8000302b8008484440060854a00c2
:10183000020ab800848444000a854a00030ab800fa
:1018400004054500040033000804d0008984d20058
:101850000a85d2008b05e9006158e1003d003500a2
:101860000210200009016100030820008981610045
:10187000f70720008783640008867300c84cde00e9
:10188000c853dd00878474004855de000300e00083
:101890000600320082037600040032008904e8006a
:1018a00060054d000a88a3000c003a00f70f2000e5
:1018b0000758e10044003d000a70a100c75ddd004b
:1018c0000a8575008a007300090078004f067800c9
:1018d0004f05be004f04be00000006000a05d100ff
:1018e0008984d3008b05e800f0ff3700881f78005b
:1018f0000604780090000700070278000001fd0050
:101900008101fd008c0007008702780085037200ca
:101910000778a300050032000001fd008101fd00f1
:101920009f0007004f047800000006008503720046
:101930000748a30003003200f0ff2f00f1ff27004b
:10194000f8ff37000000200001f8270088807000b1
:10195000f4ff3700880178004848dd00808171007d
:101960004848de00c850dd0001007000c850de00ad
:10197000060478000b0178001600070088807000cc
:10198000d2ff37000500e0000500320017002000fc
:101990003a0007009dff370081037000f9ff3a000d
:1019a000860078004f0678004f05be004f04be0049
:1019b0000000050083037100f9ff320027002000ba
:1019c0002e00070094ff370001f827008680700082
:1019d000f4ff37000100e000260032006101110031
:1019e0007810e10023003c006022b8007010e10094
:1019f0000400350080027800010078008000eb00d0
:101a0000700151000200e000090034007003110071
:101a1000062add00822ade008603dd00878272004e
:101a20000200de00860bdd00070070008208de0089
:101a300084817100f4ff27000482620084817100b8
:101a400004002800848262006102600005f0a600a4
:101a50000000060004827100070032000000e80068
:101a6000e0804800000006000002be006000b800f0
:101a7000efff37006000b80000000600889fbe003e
:101a80000004eb006138e10016003a000100e000bc
:101a900008003a00c800de004800dd008800200091
:101aa0000100e00003003a00c800de004800dd004d
:101ab000680444008184cf00e984540006003400a7
:101ac0008908dd00f08314008703de008780700042
:101ad0000900dd0009044400610214004f04be0047
:101ae000000006000300e00008003a00c811de0014
:101af0004811dd00880020000300e00003003a00e8
:101b0000c811de004811dd00680444008384cf0062
:101b1000e9845400060034008919dd00f0831400c4
:101b20008713de00878171000911dd00090444007c
:101b3000e1021400e9ff37002700200001f0a700b0
:101b400017002000470bde00f60fb2000400320041
:101b50000643e8000a0032004702b3000000060016
:101b600001037800f607b2000603700002003a0095
:101b70000703b300000006008702b3000000060060
:101b800001037800f607b20006037000020032007d
:101b90000770a000000006000760a000000006001b
:101ba0000478a300040032000578a300030032008b
:101bb0000168a30001003a000200be000160a0001d
:101bc0000000060081017000270032008002eb0057
:101bd00001f8a3000300320060001000e08018004c
:101be00015002000f407200002024200200034000b
:101bf000f703200087036000060420000003630051
:101c000002082000000161004700de00c909dd0074
:101c100000807100c708de000600e0000800320006
:101c200087037100060032001000b0000180b00090
:101c30000188a30002003200c108de000402e800af
:101c4000f107b200f30f20000320e10003003d0084
:101c50004722dd00810072002900370001f82700cb
:101c60000000eb00260037006000b800000006000e
:101c7000680212007f20e100020034006000b8001a
:101c80001f0037006011b8007020e100040035002b
:101c900080017800010078008000eb0070025200a3
:101ca0000400e00009003400f00312000719dd0011
:101cb0008419de000703dd00868171000400de0068
:101cc000070bdd00060070008408de00f7ff270028
:101cd0008383630087037100060028000303630009
:101ce000070032000700e00003003a0061016000d5
:101cf00002817300020032001000b0000180b000c9
:101d00000500a6000000060001f0a000000006008b
:101d10004f0ade004709de00f107b200f20fb20001
:101d20000b003200f207b1000170a000c708dd000f
:101d3000c901de00838070004700dd000400a600ba
:101d40000000060060001000e0801800000006009f
:101d5000810f700001003a00000006008182cf0070
:101d60000500e00010003e008082cf00ee824200bd
:101d70007028e1000400390007003e008000780070
:101d80000000eb000e003700708312008600de00ba
:101d90000500dd000a003700708352008600dd0078
:101da0000000eb0006003700e28252008508dd00eb
:101db000708312000603de00868070000500dd00df
:101dc0007507b0000501ea000400a6000000060047
:101dd00060001000e080180000000600889fbe0030
:101de0008a9fbe00841f78007c0007004f007800a7
:101df00011003300f0ff2f00838f6c0006003b00c2
:101e0000040565000a00a7000800370009f0a600d5
:101e10001000200008003700820f5400838f5c0000
:101e2000030039001000200001003e0000002000e7
:101e300009f0a7000000ea004f05be004f04be00f5
:101e40000000e00000000600881f7800030478000e
:101e50000300e00007003d0060001000e080180073
:101e600060011900e081190002003b0001f02d0023
:101e7000030037000400070008f0a70001f0a000ed
:101e80004f04780000000600889fbe008a9fbe00b5
:101e9000008270000402710004827100260032008a
:101ea0000004be000200be006011b8006b092000f3
:101eb000950220000182cf000a0039000541b100df
:101ec0000082cf00070039000541b1000982cf0030
:101ed000040039000541b1000882cf00010039003b
:101ee0000541b10005425200120032000a003b00d9
:101ef00082817100610164008100d1000080d30003
:101f00008984d3000884d3008b05e8000442e800ec
:101f1000f7ff3a00070037000804440089844c00aa
:101f200000004800818048008b05e9000442e90078
:101f3000f9ff3a00030007004f05be004f04be0042
:101f40000000060081002000618055000b003d006c
:101f50000b00200061fe2f000100e1001d00340095
:101f600082817100610164008904d1000884d3007a
:101f70000000e800faff3a007100200061006400f0
:101f80000300700002006000090032006104440098
:101f9000e0844c000988a500050032008b05e800ac
:101fa0006808e10002003a008904d1000884d300e7
:101fb000f20f20000258e10005003d00c75ddd0082
:101fc000f907b2008980750008007800000006005b
:101fd0000bf827008b007800000005000004be000d
:101fe00001fc07000003be000405be000200be00a5
:101ff000fdfb0700844f750000000600800078009c
:10200000040037003104e00002003a0000005100f3
:1020100000000600010178000108a300f9ff3a0062
:102020008101780031017800f4ef2f0002024200b4
:102030000281ea0002016200040828000401610034
:10204000f7ff320083007800010178003104e000de
:0c205000fdff3a000000510000000600f7
:020000040000fa
:10205c0041440000433a0000002c000020420000e4
:10206c00415400003a0000002e0000003000000037
:10207c00250d00000a00000041440000433a000016
:08208c00000d00000a00000035
:020000040000fa
:102094000000fa0097e0a90097c0a9008000200082
:1020a400801188003222ef0020022000c011880035
:1020b4003062a80080952000f040880080952000c0
:1020c400e040880010962000d04088001096200040
:1020d400c04088002068ef00800921000700070045
:1020e400600b21001400070097c0a80031e2a8008b
:1020f4003342a8000080fa00000006000200fa0043
:10210400000f78001e0078000000e00003003a0091
:102114008009210010418800020037009e007800e9
:10212400114188000080fa00000006000000fa0057
:102134000080fa00000006000200fa00000f780098
:102144001e0078000000e00003003a00600b21004c
:1021540020418800020037009e0078002141880059
:102164000080fa00000006000000fa000080fa0077
:10217400000006000200fa000040eb00004f780067
:1021840000000000d1408000c0408000808f5000db
:10219400fcff3200d0408000104f7800d040800017
:1021a4000000e800d0408800d1408000a0962000c4
:1021b400808f500002003a0010962000d040880022
:1021c4001e4078000080fa00000006000200fa00b9
:1021d400004f7800000000001c0007000004a2006b
:1021e4000004e000fcff3a00e04080001e48780054
:1021f400e04080000000e800e0408800e14080000a
:1022040010962000808f500002003a008095200034
:10221400e040880097e0a8000080fa000000060073
:102224000000fa00d1408000c040800000806800b7
:1022340000f0a7000000ea000000ea004f00de0002
:10224400004078000080fa00000006000400fa0054
:10225400f140800011079800e14080001e009000ca
:10226400808f5000060031009e009000e040800006
:10227400008050000000e900000f780005003700de
:102284009e009000e0408000008050006800400004
:10229400000f78001e00780000f0a7000000ea009c
:1022a4000000ea004f00de00004078000080fa00e1
:1022b400000006000000fa00e1408000f0408000c9
:1022c400808f500009003a00911180000010200016
:1022d4000080600000f0a7000000ea000000ea00af
:1022e4004f00de0000407800010037000040eb00a2
:1022f4000080fa00000006000400fa00c1408000db
:1023040011079800d04080009e009000808f5000fc
:10231400060031009e009000d040800000805000f4
:1023240069004000000f7800030037009e00900011
:10233400d0408000008f5000f00f20009e007800f5
:10234400808f50000200360000c0eb00020037000e
:102354001e007800004078000080fa0000000600ab
:102364000400fa00f140800011079800e140800069
:102374001e009000808f5000060031009e009000e7
:10238400e0408000008050000000e900000f780069
:10239400050037009e009000e0408000008050005f
:1023a40068004000000f7800f00f20009e007800c5
:1023b400808f50000200360000c0eb00020037009e
:1023c4001e007800004078000080fa00000006003b
:1023d4000800fa002007980031079800c6ff07009c
:1023e4000080fb00000f78003e0090009e0f50001c
:1023f40002003100be009000010f78000000eb00e5
:1024040010079800090037005aff0700ae0090003b
:10241400804878002e0090000000e8002007980013
:102424001e0090000000e800100798001e009000b5
:102434009e0f5000f4ff39001e0078000080fa005f
:10244400000006000800fa002007980031079800f1
:10245400c3ff07000080fb00000f78003e009000df
:102464009e0f500002003100be009000010f780062
:102474000000eb0010079800090037002e009000c0
:1024840010407800ae0090008100e8002107980019
:102494004eff07001e0090000000e800100798009f
:1024a4001e0090009e0f5000f4ff39001e007800bb
:1024b4000080fa00000006000400fa000000eb00af
:1024c400000f78008cff070020479800a4ff070046
:1024d400304798002e4090000080fb000000e00090
:1024e40003003200e90f50000300320004003700fb
:1024f4001e20a000040037001e00a00002003700c8
:102504001e10a000000000003e4090000080fb0070
:102514000000e00003003200e90f50000300320025
:10252400040037001e30a000020037001e40a00047
:10253400000000001e0078000080fa000000060081
:102544000400fa0010079800d14080001e0090009b
:10255400008f4000020037009e007800698f500011
:10256400a09620009e007800808f5000faff3e0065
:102574001e007800104078000080fa000000060079
:102584000000fa005cff07000080fb000000e90087
:102594004f00de00004078000080fa0000000600d2
:1025a4000000fa006eff07000080fb000000e90055
:1025b4004f00de00004078000080fa0000000600b2
:1025c4000000fa00901180000080fa00000006006c
:1025d4000000fa0062ff07000004e000100032006f
:1025e400f1408000e0408000808f500006003600fb
:1025f400f040800080007800e040800000805000bf
:102604000000e90007003700f040800080007800f7
:10261400e040800000805000680040000100370066
:102624000000eb000080fa00000006000000fa0041
:1026340031ff07000004e00010003200d1408000a8
:10264400c0408000808f500006003600d0408000db
:1026540080007800c0408000008050000000e90045
:1026640007003700d040800080007800c040800020
:102674000080500068004000010037000000eb00bb
:102684000080fa00000006000000fa0031e2a80011
:102694003342a8000080fa00000006000000fa009f
:1026a40031e2a9003342a9000080fa0000000600cc
:1026b4000800fa0080c1b300004f7800f0c0b300f6
:1026c400404798000040eb005047980080c1b30099
:1026d400004f78009e80fb006601470064004700bd
:1026e400820178000101780011c0b300790207006b
:1026f400000000003e009000e10f5000fdff32009a
:102704009e80fb0066014700650047008201780057
:102714000101780011c0b300870207000000000027
:102724003e009000e10f5000fdff32003e0090009b
:10273400e20f500003003a00100020001007980038
:10274400020037000000eb00100798005e40900084
:102754000080fa00000006000600fa0080c1b30001
:10276400004f780000c2b300104798000040eb000f
:10277400204798009e80fb00640147000e00e8009b
:10278400820178000101780011c0b30051020700f2
:10279400000000002e009000e10f5000fdff320009
:1027a4009e80fb00640147000e80e80082017800ef
:1027b4000101780011c0b3005f02070000000000af
:1027c4002e009000e10f5000fdff32002e409000db
:1027d4000080fa00000006000600fa0080c1b30081
:1027e400004f780000c2b3001047980000c2b30045
:1027f4002047980070c3b300304798009e80fb00c8
:10280400640147000e80e80082017800010178002d
:1028140021c0b3002f020700000000002e0090002a
:10282400e10f5000fdff32000080fa0000000600b6
:102834000600fa0080c1b300004f780000c2b30064
:102844001047980000c2b3002047980070c0b3003e
:10285400304798009e80fb00640147000e80e8002a
:10286400820178000101780021c0b3001902070039
:10287400000000002e009000e10f5000fdff320028
:102884000080fa00000006000c00fa0080c1b300ca
:10289400004f780080c2b3006047980090c2b30034
:1028a4007047980080c1b300004f78009e80fb0001
:1028b4006a01470066004700820178000101780040
:1028c40011c0b30003020700000000005e00900086
:1028d400e10f5000fdff32009e80fb006a014700bb
:1028e40068004700820178000101780011c0b3003c
:1028f40011020700000000005e009000e10f50008c
:10290400fdff32009e80fb006a014700670047001c
:10291400820178000101780011c0b300ed010700c5
:10292400000000005e009000e10f5000fdff320047
:102934009e80fb006a014700680047000000e80031
:10294400820178000101780011c0b300fa01070088
:10295400000000005e009000e10f5000fdff320017
:102964005e009000e20f500003003a0010002000c7
:1029740010079800020037000000eb0010079800d1
:102984001e4890000080fb00200798002e00900055
:102994004800dd00200798000e4890000080fb00ee
:1029a400ae00900000804000200798002e009000a8
:1029b4000080fa00000006000c00fa0080c1b30099
:1029c400004f7800a0c2b30060479800b0c2b300c3
:1029d4007047980080c1b300004f78009e80fb00d0
:1029e4006a0147006600470082017800010178000f
:1029f40011c0b300b7010700000000005e009000a2
:102a0400e10f5000fdff32009e80fb006a01470089
:102a140068004700820178000101780011c0b3000a
:102a2400c5010700000000005e009000e10f5000a7
:102a3400fdff32009e80fb006a01470067004700eb
:102a4400820178000101780011c0b300a1010700e0
:102a5400000000005e009000e10f5000fdff320016
:102a64009e80fb006a014700680047000000e80000
:102a7400820178000101780011c0b300ae010700a3
:102a8400000000005e009000e10f5000fdff3200e6
:102a94005e009000e20f500003003a001000200096
:102aa40010079800020037000000eb0010079800a0
:102ab4001e4890000080fb00200798002e00900024
:102ac4004800dd00200798000e4890000080fb00bd
:102ad400ae00900000804000200798002e00900077
:102ae4000080fa00000006000c00fa0080c1b30068
:102af400004f7800c0c2b30060479800d0c2b30052
:102b04007047980080c1b300004f78009e80fb009e
:102b14006a014700660047008201780001017800dd
:102b240011c0b3006b010700000000005e009000bc
:102b3400e10f5000fdff32009e80fb006a01470058
:102b440068004700820178000101780011c0b300d9
:102b540079010700000000005e009000e10f5000c2
:102b6400fdff32009e80fb006a01470067004700ba
:102b7400820178000101780011c0b30055010700fb
:102b8400000000005e009000e10f5000fdff3200e5
:102b94009e80fb006a014700680047000000e800cf
:102ba400820178000101780011c0b30062010700be
:102bb400000000005e009000e10f5000fdff3200b5
:102bc4005e009000e20f500003003a001000200065
:102bd40010079800020037000000eb00100798006f
:102be4001e4890000080fb00200798002e009000f3
:102bf4004800dd00200798000e4890000080fb008c
:102c0400ae00900000804000200798002e00900045
:102c14000080fa00000006000800fa000040eb0003
:102c24004047980000c5b300304798000040eb00cf
:102c3400204798002b0037003e4090008080fb0026
:102c440066014700640047008201780001017800b2
:102c540011c0b3001f010700000000003e009000f7
:102c6400e10f5000fdff32003e4090008080fb00e9
:102c7400828320002e4090000080fb004400dd0091
:102c840000004100660147008201780001017800dc
:102c940001c1b30028010700000000003e009000bd
:102ca400e10f5000fdff32003e009000e20f5000a3
:102cb40009003a0010002000000f78004e409000f8
:102cc40070404000404798002e4090000040e800cb
:102cd40020479800030037000000eb00000f780045
:102ce400030037002e409000ef4f5000d2ff360013
:102cf4001e0078000080fa00000006000000fa00c0
:102d0400c5ff07000080fa00000006002000fa005a
:102d1400600f9800615f9800725f980000052000c2
:102d2400300798006e5890000080fb001007980050
:102d3400fe589000014f98007e5890008080fb0060
:102d44006e5890000080fb0080804000f00f20004f
:102d5400808f50003b003c00360037001e0090007e
:102d6400f00f50000600360000c1b3004047980041
:102d74001e009000700050001007980004003700f7
:102d84001e009000404798000000eb0010079800d8
:102d940010c0b300504798000d0037005e4090000b
:102da4000080fb00de4090008180fb008100e90090
:102db4006e099000810041009140780000004700b6
:102dc400014898005e4090000040e8005047980099
:102dd400de4090004e40900080cf5000efff360060
:102de4004e4090008040e8007a01470068004700a8
:102df400820178003e019000b60007000000000048
:102e04005e089000e10f5000fdff32005e08900064
:102e1400e20f500003003a0010c0b300004f7800e6
:102e2400040037000040eb00004f78000000000071
:102e3400060037001e0090000000e000c7ff3a00c3
:102e4400020037000040eb00004f78001e4078007d
:102e54000080fa00000006001800fa00300f980005
:102e64000040eb00404798000040eb0050479800ba
:102e74000040eb00204798000d0037002e409000e2
:102e84000080fb000080e800ae4090008180fb00e1
:102e94003e09900081004100914078000000470005
:102ea400414098002e4090000040e80020479800e0
:102eb4002e409000ee4f5000f0ff360000c5b300e6
:102ec400304798003e4090008080fb00740147002a
:102ed40064004700820178000101780001c1b30059
:102ee4007c000700000000002e089000e10f500055
:102ef400fdff32002e089000e20f500003003a005c
:102f040010002000000f7800020037000000eb00e2
:102f1400000f78001e0078000080fa000000060010
:102f24000800fa000040eb00404798000040eb0026
:102f34005047980000c5b300004f78009e80fb0006
:102f440066014700640047008201780001017800af
:102f540021c0b3005f000700000000003e009000a5
:102f6400e10f5000fdff32009e80fb0080832000b3
:102f7400660147008201780001017800e1c0b300d6
:102f84006d000700000000003e009000e10f5000bb
:102f9400fdff32003e009000e20f500003003a00b3
:102fa4001000200010079800020037000000eb001a
:102fb40010079800808320000080fa0000000600bb
:102fc4000000fa0014ff0700808320000080fa004c
:102fd400000006000000fa0000802000a1962000f6
:102fe4001100980000802000a196200001087800bc
:102ff40000802000a00090000110a0002100980093
:1030040000802000a00090000100a1002100980091
:10301400008020008040eb006140980050022000b6
:103024002010880000002800301088000822ef00db
:103034008620a9009620a8000080fa00000006005f
:103044000200fa0000802000e0409000014f780068
:103054001e4078000080fa00000006000000fa001c
:103064006040800066004000604088000ac8bf00dd
:103074000040e9000ae8b7000ac8bf000004e00005
:1030840003003a004000200040408800020037005e
:1030940010002000404088000080fa000000060074
:1030a4000200fa00000f78000642a8007040800079
:1030b400200090000000e000030032007040800017
:1030c400200090001e0878000828ef000080fa0015
:1030d400000006000800fa00000f7800214798005d
:1030e40022079800330798000080200020009000f9
:1030f400610060000000e0000a003a00ae019000a8
:103104002e4190009e007800609720007700070011
:103114003e0190006197200010c0b3001f0007001b
:10312400030037003e0090008000eb0001087800a7
:103134000080fa00000006000800fa00000f780082
:103144002147980022079800330798000080200048
:1031540020009000610060000000e0000a003a00d6
:10316400ae0190002e4190009e0078000097200050
:10317400460007003e0190000197200010c0b300f4
:1031840006000700030037003e0090008000eb00bb
:10319400010878000080fa00000006000600fa002a
:1031a400004f780011079800220798000080200043
:1031b40020009000610060000000e0002e003a0052
:1031c4002e009000110020000108780000802000eb
:1031d400100078009e0090001100980000802000ec
:1031e400100078001e48780000802000100078004d
:1031f400ae009000210098000080200010007800ac
:10320400e6004000008020000108780000802000d3
:103214009000780000972000808f500003003a004f
:1032240000802000a1962000010878000080200082
:10323400a00090000110a10021009800008020004f
:10324400900090000080200010007800808f5000d3
:1032540004003a0000802000a00090000100a000bb
:1032640021009800404080000000e00005003a0082
:103274008620a800030037002e0090008000eb0099
:10328400010878000080fa00000006000800fa0037
:10329400000f780011079800424798003307980000
:1032a4003e00900000004000800078001e0078007e
:1032b400010878001e007800100078008000780073
:1032c4000100a0001e007800010878001e007800ac
:1032d400ce409000214098001e0078009e0090008f
:1032e400210098000080fa00000006000800fa009f
:1032f400000f7800110798004247980033079800a0
:103304003e00900000004000800078001e0078001d
:10331400010878001e007800ce40900021409800fb
:103324001e0078009e009000210098000080fa00a2
:10333400000006000000fa00008020002000900039
:103344006200600000f0a7000000ea000000ea004c
:103354004f00de00004078000080fa000000060004
:103364000000fa000080200020009000610060004e
:1033740000f0a7000000ea000000ea004f00de00b1
:10338400004078000080fa00000006000000fa0007
:103394002023a8000080fa00000006000200fa00c2
:1033a400000f78001e007800e20f50001900320070
:1033b400e20f500005003e000000e0000a00320069
:1033c400e10f50000d0032002a003700e40f5000d6
:1033d4001c003200e40f500014003900e50f5000c7
:1033e4001e003200230037004119800000ff2f0027
:1033f40000806000401988001e00370041198000d9
:1034040000ff2f00008060000000a0004019880029
:10341400180037004119800000ff2f000080600071
:103424000010a000401988001200370041198000e4
:1034340000ff2f00008060003000b30040198800b6
:103444000c0037004119800000ff2f00008060004d
:103454000020a000401988000600370041198000b0
:1034640000ff2f00008060005000b3004019880066
:10347400000000000080fa00000006000000fa00ce
:1034840095a0a8000080fa00000006000000fa00e1
:1034940085a0a9000080fa00000006000800fa00d8
:1034a40020079800310798002e019000be0190007b
:1034b4004418dd00cc10de00810070004410dd00f3
:1034c400008fbe001e00be00120407000080fa0038
:1034d400000006000000fa002023a800a00020003d
:1034e40001002000edff07002023a90010c0b30055
:1034f40034e8b7000080fa00000006000000fa007b
:10350400e2ff070010c0b30035e8b7000080fa00fe
:10351400000006000600fa00200798002e00900024
:103524008000eb00adf6070002002c00f3472400f6
:10353400c2f7070032332300330524009ef8070046
:10354400008fbe001e00be000080fa0000000600ce
:103554000800fa00881f78002007980031079800b7
:1035640018c0b30002002000030324002e009000c2
:10357400be00900056f607000000e0000100350090
:103584000044eb000804e0000500320000002000c5
:103594000103240020079800310798000f0037002a
:1035a40018c0b30062662600630824002e00900051
:1035b400be00900048f607000000e00001003c0057
:1035c4000044eb000804e0000400320060662600ba
:1035d40061082400200798003107980002002000a9
:1035e400030324002e009000be009000a5f60700ff
:1035f4008299290093fb230090f707000200200022
:10360400832c24006cf80700008fbe001e00be004f
:103614004f0478000080fa00000006001800fa0049
:1036240070079800020f9800130f9800240f980059
:10363400350f9800e0022900630107006400470089
:10364400800078007e009000ff00070064004700bf
:103654004a010700300329005b0107002e0890008f
:10366400be0890001ef60700000f78001e007800c8
:10367400cf80de0056f607000001be002e08900041
:10368400be0890007ff6070002002000832c24006f
:1036940049f8070012f60700100798001e0078008a
:1036a400e4004700e8000700640047003301070016
:1036b400a0032900440107001e009000e90f5000f8
:1036c40002003c00c00329003f0107001e009000d7
:1036d400e4004700dc0007006400470027010700fe
:1036e400e0032900380107000080fa00000006000a
:1036f4000000fa00c0a621002d02070000a8210046
:10370400ba0207005dff07000000eb0023ff07007b
:103714001eff07003568ef003468ef002c02070035
:103724000080fa00000006000000fa000080fa00a1
:10373400000006000c00fa00204f9800ae489000ec
:1037440080c7b30080cf500020003e002e48900078
:103754000080fb008000eb00f20f20000289b9001a
:10376400020178006002b90084017800030141007d
:10377400f30f20000300b80001014100820078002b
:1037840082072000030020002bf607001007980092
:103794001e0090008000eb0010f607006266260011
:1037a40063f8230004f80700eef5070010079800fb
:1037b4009e009000f00f2000808f5000050036001e
:1037c400f00f20001007980002003700f00f2000cf
:1037d400100798001e0090004400dd0010079800b8
:1037e4001e0090004800de00004078006f4060003a
:1037f400604798001e0090008040780000cfb3001e
:1038040000c0600070479800e80047006600470069
:1038140081017800d200200021c0b3002dfe0700f2
:10382400000000004e009000e10f5000fdff320048
:103834004e009000e20f500003003a0010c0b300a5
:10384400004f7800020037000040eb00004f780082
:103854001e4078000080fa00000006001000fa0004
:10386400604f98006e4890000004e0000b003a009e
:103874000040eb00404798000040eb0050479800a0
:103884008e80e8006400470081017800d2002000a7
:1038940021c0b3000ffe0700350037006e489000ca
:1038a400e14f50000b003a0040c0b300604798005d
:1038b4000040eb00704798008e80e80066004700e7
:1038c40081017800d200200021c0b30001fe07006e
:1038d400270037006e489000e24f50000b003a007a
:1038e40080c0b300004f98000040eb00104f9800d8
:1038f4008e80e8006800470081017800d200200033
:1039040021c0b300f3fd0700190037006e48900092
:10391400e34f50000b003a00c0c0b300204f9800a2
:103924000040eb00304f98008e80e8006a004700aa
:1039340081017800d200200021c0b300e5fd07001a
:103944000b003700f0c0b300404f980000cfb30025
:10395400504f98008e80e8006c0047008101780089
:10396400d200200021c0b300dafd070000000000ef
:103974001e009000e10f5000fdff32001e00900079
:10398400e20f500003003a0010c0b300004f78006b
:10399400020037000040eb00004f78001e40780022
:1039a4000080fa00000006000600fa0020079800d4
:1039b4000040eb00004f78002e0090008ef90700c5
:1039c400004078000040e9001047980018003700d4
:1039d4001e00fb00ae009000008040009040780084
:1039e400214798001e00fb00ae00900000804000bc
:1039f4009e4090008100fb002e0190008100410058
:103a040091407800014878001e4090000000fb00bf
:103a1400ae00900000804000ae4090000148780065
:103a24001e4fe8001e4090000040e9001047980037
:103a34001e4090009e40780080cf5000e4ff350087
:103a44000080fa00000006000600fa001007980043
:103a5400210798000040eb00004f78001e80fb0017
:103a6400ae009000808140001e019000d0cc2c005c
:103a74000010b8004308de006a00b90000007800b6
:103a840000005100004078000043b00080497800f5
:103a94001e4fe8009e009000d0cc2c000008b80017
:103aa4004308de00100798001e0090000000e000ac
:103ab400eaff3a001e80fb00ae0090000080400048
:103ac4008040eb00014878002e009000b6ff07000c
:103ad4000080fa00000006000800fa00881f780041
:103ae4001007980021079800320798000040eb0067
:103af400004f78001e80fb00be0090000084400050
:103b04001e009000ae009000a200200003002000e0
:103b140059f50700004078000043b000004c7800dd
:103b24001e4fe8001e009000ae009000a20020008e
:103b34000300200040f507001007980021079800b3
:103b44001e009000ae009000e00f5000e08f58007f
:103b5400e8ff3a001e80fb00be0090000080400099
:103b64008040eb00014878003e0090008eff070083
:103b74004f0478000080fa00000006000400fa00f8
:103b8400100798000040eb00004f78000600370053
:103b94001e80fb009e0090000080400010407800d2
:103ba4001e4fe80089f907001e80fb009e0090006c
:103bb40000804000104078000004e000f4ff3a0068
:103bc4000080fa00000006000400fa0010079800c4
:103bd4000040eb00004f7800060037001e80fb0019
:103be4009e00900000804000104078001e4fe800c6
:103bf40076f907001e80fb009e00900000804000c4
:103c0400104078000004e000f4ff3a000080fa005d
:103c1400000006000000fa000021ef00f03120004f
:103c240010088800000028002008880060418000f7
:103c34000000e00002003a0040e6210024000700f2
:103c44008460a9009460a800c09720008040eb0025
:103c5400014878000080fa00000006000200fa0023
:103c6400000f78009e00780011088800c09720009b
:103c74008040eb00014878000080fa000000060054
:103c84000000fa00100880000080fa00000006001e
:103c94000200fa00000f78009e00780001088800f6
:103ca400c09720008040eb00014878000080fa00b3
:103cb400000006000000fa00000880000080fa00fe
:103cc400000006000000fa000080fa000000060070
:103cd4000200fa00000f78009460a9009e007800aa
:103ce400614188009460a8000080fa00000006008a
:103cf4000000fa00c09720008040eb0001487800e3
:103d04009460a80005e1a8000080fa000000060005
:103d14000000fa0005e1a9009460a9000080fa00ff
:103d2400000006000200fa00c0972000104f78003f
:103d34001e4078000004e00003003200c097200019
:103d44008040eb00014878001e4078000080fa00b3
:103d5400000006000000fa00d09720001040780010
:103d64000080fb000080fa00000006000000fa005a
:103d7400d09720008040eb00014878000080fa00d2
:103d8400000006000000fa000621ef007038210050
:103d940060088800000228008008880070418000c4
:103da4000000e00002003a00c0f1210024000700f6
:103db40084e0a90094e0a800e09720008040eb0094
:103dc400014878000080fa00000006000200fa00b2
:103dd400000f78009e00780061088800e0972000ba
:103de4008040eb00014878000080fa0000000600e3
:103df4000000fa00600880000080fa00000006005d
:103e04000200fa00000f78009e0078003108880054
:103e1400e09720008040eb00014878000080fa0021
:103e2400000006000000fa00300880000080fa005c
:103e3400000006000000fa000080fa0000000600fe
:103e44000200fa00000f780094e0a9009e007800b8
:103e54007141880094e0a8000080fa000000060088
:103e64000000fa00e09720008040eb000148780051
:103e740094e0a80011e1a8000080fa000000060008
:103e84000000fa0011e1a90094e0a9000080fa0002
:103e9400000006000200fa00e0972000104f7800ae
:103ea4001e4078000004e00003003200e097200088
:103eb4008040eb00014878001e4078000080fa0042
:103ec400000006000000fa00f0972000104078007f
:103ed4000080fb000080fa00000006000000fa00e9
:103ee400f09720008040eb00014878000080fa0041
:103ef400000006000000fa000a21ef0030422f0003
:103f04007008880000032800900888008041800021
:103f14000000e00002003a0040fd210024000700f8
:103f24008500a9009500a800009820008040eb00bf
:103f3400014878000080fa00000006000200fa0040
:103f4400000f78009e007800710888000098200017
:103f54008040eb00014878000080fa000000060071
:103f64000000fa00700880000080fa0000000600db
:103f74000200fa00000f78009e00780051088800c3
:103f8400009820008040eb00014878000080fa008f
:103f9400000006000000fa00500880000080fa00cb
:103fa400000006000000fa000080fa00000006008d
:103fb4000200fa00000f78009500a9009e00780026
:103fc400814188009500a8000080fa0000000600e6
:103fd4000000fa00009820008040eb0001487800bf
:103fe4009500a80013e1a8000080fa000000060074
:103ff4000000fa0013e1a9009500a9000080fa006e
:10400400000006000200fa0000982000104f78001b
:104014001e4078000004e0000300320000982000f5
:104024008040eb00014878001e4078000080fa00d0
:10403400000006000000fa001098200010407800ec
:104044000080fb000080fa00000006000000fa0077
:10405400109820008040eb00014878000080fa00ae
:10406400000006000000fa002023a8000080fa00e7
:10407400000006000000fa0085a0a9000080fa00f4
:10408400000006000000fa0011118000002020004a
:104094000080600000f0a7000000ea000000e900d2
:1040a4004f00de00004078000080fa0000000600a7
:1040b4001000fa00250107008dfd0700e202a900a7
:1040c4006000b80010079800210798000600370028
:1040d4001e009000ae00900061004000e0804800a7
:1040e40010079800210798001e019000ae0190006f
:1040f400f03f2f0011002000800f5100818f5900e4
:10410400f3ff3600e202a8000100370000000000bf
:1041140032c8bf000004e000030032003268ef0040
:10412400d4ff0700cfff070035c8bf000004e0003c
:10413400f6ff32003568ef0020042900a2fe0700d4
:1041440001188000010f78006600470080007800a5
:104154001e0078003cfe0700030037008038210071
:1041640001002000cdfc0700c6ff07000004a200e8
:104174000004e000f9ff3a00660047007ffe0700f4
:104184007004290090fe0700e1ff37000000fa00e8
:10419400000e2800001988002223ef0030f02000d0
:1041a400201988002823ef003023ef00200f22007d
:1041b4000e00070085a0a90095a0a8005105800065
:1041c400f0f82f00808060000005200001007000de
:1041d4005005880021e3a8000080fa0000000600d2
:1041e4000000fa000080fa00000006000200fa0055
:1041f400000f78001e007800404188000080fa001b
:10420400000006000000fa002023a8000080fa0045
:10421400000006000000fa002023a9000080fa0034
:10422400000006000800fa0030079800101980000a
:104234004200de006f4060000080fb002007980011
:1042440000302000100798000000eb00000f7800f9
:104254000b0037001e00780000004000be009000f4
:10426400008040009e0090009100780001087800d2
:104274001e0090000080e800100798001e0fe80060
:104284009e0078002e009000808f5000f1ff3600d1
:0c4294001e0078000080fa000000060008
:020000040000fa
:1042a0003809000020000000000000002a0800007b
:1042b0000200000002000000ffff0000580900009b
:1042c0001200000000000000180800000e000000ae
:1042d000000000007c090000020000000000000057
:1042e0002c08000002000000000000007e09000011
:1042f00002000000000000002e0800000200000084
:10430000000000002608000004000000000000007b
:104310006a09000012000000000000000008000010
:1043200018000000000000008009000002000000ea
:104330000000000030080000020000000000000043
:1043400032080000020000000000000034080000f5
:10435000020000000000000038080000000100001a
:10436000000000003608000002000000000000000d
:044370000000000049
:020000040000fa
:104374000000fa0021068000007020000100700097
:104384002006880091058000f0ff280080806000ee
:10439400000026000100700090058800910580004f
:1043a4000070200001007000900588005105800015
:1043b400f0f82f00808060000003200001007000ee
:1043c4005005880061058000f0f82f00008060002f
:1043d4000040a000600588006105800080ff2f0078
:1043e400008060000000a000600588004105800096
:1043f40080ff2f00008060000000a00040058800be
:1044040031058000f0ff2800808060000000230058
:10441400010070003005880021058000f0ff2800ad
:104424000080600000e0a000200588000080fa0001
:10443400000006000000fa00c422ef00ca22ef00c8
:10444400d022ef00d622ef00dc22ef000002200091
:1044540010178800e822ef00c022ef00f00f2000c0
:10446400301688000000270060168800d222ef0072
:10447400d822ef0040012000f0168800c000200080
:10448400201788006820ef006a20ef00c026ef00a4
:10449400c626ef00cc26ef00d226ef00d826ef0088
:1044a400de26ef00e426ef0000fc2f0060198800f0
:1044b4000080fa00000006000000fa00000023005b
:1044c400203a88004827ef007027ef007227ef009a
:1044d4007427ef001200200080072000a1092000ab
:1044e400337420008049780081497800824978003b
:1044f4000001eb00600420007105200023742000fb
:104504008049780081497800824978000080fa0067
:04451400000006009d
:020000040000fa
:10451800f03fb1000180b10006003500ee0309004c
:1045280000000000403fb1000180b100fbff3d00ea
:104538001000b000203fb0000200350000800900e4
:08454800000000000000060065
:020000040000fa
:104550000000fa00b8ff0700d8ff070085ff07003a
:10456000ccf607009cfa070009ff070062fe07006f
:1045700005fe0700a8fd07000080fa000000060005
:104580000200fa00000f78009e0078005141880078
:10459000ffff37000000fa008093200080077800ba
:1045a00000952000000188000080fa00000006004d
:020000040000fa
:020000040001f9
:0457f8009ff9000015
:020000040000fa
:020000040001f9
:0457fc007f3f0000eb
:00000001FF
